:020000040000FA
:10000000021F3F022003FFFFFFFFFF02200BFFFF45
:10001000FFFFFF022013FFFFFFFFFF02201BFFFF78
:10002000FFFFFF022023FFFFFFFFFF02202BFFFF48
:10003000FFFFFF022033FFFFFFFFFF02203BFFFF18
:10004000FFFFFF022043FFFFFFFFFF02204BFFFFE8
:10005000FFFFFF022053FFFFFFFFFF02205BFFFFB8
:10006000FFFFFF022063FFFFFFFFFF02206BFFFF88
:10007000FFFFFF022073FFFFFFFFFF02207BFFFF58
:10008000FFFFFF022083FFFFFFFFFF02208BFFFF28
:10009000FFFF70DFFFFF040000000002000000C847
:1000A000030002030369A5020269A532730000017F
:1000B00000000000000400FFFFFFFFFFFFFFFF0440
:1000C00003090424035400650078006100730020D4
:1000D0000049006E0073007400720075006D0065C9
:1000E000006E007400730024035400490020004394
:1000F000004300320035003300310020005500532A
:10010000004200200043004400430000035F005F02
:100110000030005800000000000000000000000057
:1001200000000000000000000000000000000000CF
:100130000000000000303132333435363738394171
:100140004243444546331C881C881C881C881C90EC
:100150001C74F8121BCD900391E06015900302749B
:10016000FEF0900304744DF0A37405F07A011207B9
:100170001C7F01021D6C74F8121BCD74FF121EB699
:100180007E00801F851882851983E064FE700690CA
:1001900003877401F0851882851983E0F890038441
:1001A000E068F07901AA18AB191210E9E9700302AE
:1001B0000287851882851983E064EF70027E07E06C
:1001C000C0E0900387E0FA900385E0F8EA28F8E4BD
:1001D0003400F9740228F582740339F583D0E0F015
:1001E000900387E0609E14600E14602B14603B1433
:1001F0006051146067809E900384E4F085188285C6
:100200001983E0900386F0C394809003874003E451
:1002100080827402020194851882851983E090031C
:1002200082F09003877403020194851882851983F4
:10023000E0900383F0900386E060199003877404D4
:10024000020194900385E004F0F8900386E0686072
:10025000030201959003877405020194900385E4DD
:10026000F0900387F0900384E0F885188285198365
:10027000E0686003020195900382E0644D60030230
:1002800001951203BF8002EEF97401121E370201BC
:100290007174F7121BCD74FB121EB6EAFEEBFF75EC
:1002A00008047509007808121ED07402121F377AEC
:1002B000907B0079041218EB7402121E3712070E9D
:1002C000121F88E0687003A3E069701285188285A8
:1002D0001983E0F47003A3E0F4600302039A74044A
:1002E000121F2F1207708A088B09A808A909740227
:1002F000121F88E8F0A3E9F07404121F88E0600878
:1003000079011201510203B3851882851983E068CF
:100310007003A3E0697076851882851983E0F47014
:1003200003A3E0F470197402121F887410F0A37410
:1003300020F08518828519837410F0A37420F0755D
:1003400008017509007808121ED07402121F377A4E
:10035000247B0812196F7402121E3775080478087E
:10036000121ED07402121F377A907B007904121883
:10037000EB7402121E3712070E121F88E06870031A
:10038000A3E069700479028006790480027903127F
:1003900001518E828F83741E80058E828F83E4F0DC
:1003A00012070E121F88E0687003A3E069700479D9
:1003B00001800279007405121E377F02021D6C74E1
:1003C000ED121BCD74F8121EB6900307E0FD9003EA
:1003D00006E0FCFAEDF8E4C8F9EA28FEE93408FF83
:1003E000751001750B00750A068E088F0974027866
:1003F00008121F1CC39508F8E49509F9740228F542
:100400000E740339F50F8E088F0974097808121FCE
:100410004EE508F511EE2410F508E43FF509EEF578
:100420000CEF5401F50D900383E014605914700330
:100430000204FB14700302057614601024FE70039E
:100440000206311470030206E10206F1750A03790F
:100450004E1213BD9003071207047402F0A37440F8
:100460001207027408120702F0A3F07418C394076D
:1004700004F510AA10A90B12071CA90A7408121E71
:10048000377F0C021D6C750A04794E1213BDEE45C0
:100490000D7005A9111219D5C3EE9425EF940850DB
:1004A0003CC3E5089424E50994084031E50E249600
:1004B000F8E50F3420F988828983E0701BA3AA82B3
:1004C000AB83E070139003887401F0888289837491
:1004D000A5F08A828B838004900388E4F07508106D
:1004E0007509007808121ED07C087D03EEFAEFFB38
:1004F00012196F7402121E37020473750A05E51192
:10050000C394794006750B0102047375124075138C
:10051000007812121ED07C097D037402780C121F21
:100520001CAA0CAB0DA9111218EB7402121E379005
:100530000307E0A3F0900306E0A3F0751043C3EEB9
:100540009425EF94084003020473C3E5089424E55E
:100550000994085003020473900388E070030204B6
:1005600073E50E2497F8E50F3420F988828983E437
:10057000F0A3F00204737508047509007808121ED0
:10058000D07402121F377A907B0079041218EB7432
:1005900002121E377402121F88E0F8A3E0F98518D2
:1005A00082851983E0687003A3E069851882851944
:1005B00083700BE0F47003A3E0F470578009E0F45B
:1005C0007003A3E0F4700D8518828519837410F010
:1005D000A37420F012070E121F88E8F0A3E9F0754B
:1005E00008017808121ED07402121F377A247B0883
:1005F00012196F7402121E377508047808121ED083
:100600007402121F377A907B0079041218EB74027F
:10061000121E3712070E121F88E0687003A3E069EC
:100620007006750A01020473750A02750B0702044D
:10063000739003D6E0600764026003020473EDFF69
:100640007A01790012071CE060030206D5800312CC
:10065000118512116CE970F77404121F881206F6E6
:100660007404121F887808121F6C85080C85090D08
:10067000850A0E850B0F9003C2780C121EF67404C7
:10068000121F88780C121F5DE5084509450A450BC5
:1006900070CE8EC2E5C554E04FF5C57404121F88B4
:1006A0001206F67404121F887808121F6C85080C55
:1006B00085090D850A0E850B0F9003C2780C121E5A
:1006C000F67404121F88780C121F5DE50845094571
:1006D0000A450B70CE7A01790012071C79080204D2
:1006E0007CEC900391F07003020473750A09020414
:1006F00073790602047CE4F0A37426F0A3E4F0A36B
:10070000F022F0A3E4F0A3F0A3F0A3F0A322851855
:1007100082851983E0F8A3E0F974022274F8121BB1
:10072000CDEAFE900305E0D2E7F0E9A3F0EE9003F6
:1007300003F08E0874042AFE7C028004E062080C38
:10074000ECFA3395E0FB74022AF58274033BF583DF
:10075000EEF8C3EA98EB9400A2D265D03340DDE511
:1007600008F074012AF97A027B0312112702017141
:1007700074E9121BCD7582007583FE121E198A164C
:100780008B177514007515008A828B83E4F0900333
:10079000D6E07006D2AAD2AF800464027005790058
:1007A000120151750C00750D20750E00750F00902B
:1007B00003D6E0600464027015121185120176E917
:1007C000F874096860030208AC7900120151E06412
:1007D000027007A29240030208877508007509029B
:1007E0007808121ED07402121F37850C08850D0977
:1007F000AA08E5095407FB850E0A850F0B740B78D0
:1008000008121E87A9081218EB7402121E377E0008
:100810007F009003CAC0828E10EFF5113395E0F58A
:1008200012F513850C08850D09850E0A850F0B78C6
:10083000087910121F099003C67808121EF67583F6
:1008400003D0827808121DFA501D851882851983FD
:10085000E5822EF582E5833FF583E0F9AA14AB1516
:100860001208DB8A148B150EEE70010FC3EF940291
:1008700040A09003CE780C121EF69003D2780C1292
:100880001DFA40030207AF7900AA14AB151208DB6A
:1008900079001208DB8B159003D6E07004C2AFC25A
:1008A000AAEA451570277AA57BA58021E870030286
:1008B00007CE74066870030207CE740768700302DF
:1008C00007CE8516828517837401F080BA75820081
:1008D000758302121E197F10021D6CC008C0097CAE
:1008E000088A088B09740F7808121F4EE508F8EA89
:1008F00025E0FAEB33FBE9A2E7500474014AFAE879
:10090000A2E0500874216AFA74106BFBE9C333F952
:100910001CEC70CDD009D00822C082C083120F33E6
:1009200060030209F0A3E0F8A3E060030209F0A36A
:10093000E064027002A3E060030209F09003B8E0F3
:100940002480600914604F14605C0209F0E86003C1
:100950000209F09003B2E060047801800278009010
:1009600003C0E8F0A3E4F09003B1E0600A9003C094
:10097000E04402F0A3E4F09003A6E0640460149065
:1009800003B374C0F0A37403F0A3E4F0A3740212E1
:100990000F95F0020E6E90039FE064047052900376
:1009A000C0E4F0A380D0E8547FFA90039FE0640491
:1009B000703EEAC394065038749F2AF582E43403EB
:1009C000F583E854806018A3A3A3A3A3A3A3E064C2
:1009D0000370047801800278009003C0E88094E5F9
:1009E00082240CF58250020583E0640370E980E301
:1009F0009003A67404809B74F8121BCDE9FE90034B
:100A0000BE120F366003020AD990039FE0640460AF
:100A10000B9003BC120F366003020AD99003B8E0B2
:100A2000541F6009146030146020020AD99003BA80
:100A3000E064017022EE9003B1F060047905800259
:100A400079067A00121BCB020ADF9003BCE0547FC8
:100A5000FA9003BAE060057900020AE1EAC394065D
:100A60005077EA90620EF0749F2AF8E43403F9900C
:100A700003BCE05480602EEE600474108002744069
:100A8000906211F0EE60047B0380027B00EB8882B1
:100A90008983A3A3A3A3A3A3A3F0EE600479088092
:100AA0002F7907802BEE60047B2080027B80EB9007
:100AB0006214F0EE60047B0380027B00E8240CF5F6
:100AC00082E439F583EBF0EE6004790A800279095B
:100AD000121BCB90620EE480059003A67404F0799B
:100AE000017F01021D6C79001209F7E97003121BE6
:100AF000BA2279011209F7E97003121BC922C082D8
:100B0000C0839003BC120F367015A3120F36700FFE
:100B10009003BA120CD95480FAE9FBEA4B600790B3
:100B200003A67404801AE8906200F090039F6009A5
:100B3000E06402700C74038007E0640370037402C5
:100B4000F0020E6E74F5121BCD9003BAE0FAA3E02A
:100B50001460081460101460398057121754120C76
:100B6000B6A37B8080417900121776120CB67B8089
:100B7000E92402F9E43AFA121E6DFC1919E0FAA30D
:100B8000E92403F9E43AFA121E6DF9ECA3F0A3E9A3
:100B9000801CEAF91217E49003B3EAF0A3EBF0A388
:100BA000E4120CC5A37B00121E6DA3F0A3E4F002B7
:100BB0000C709003B3E4F0A3F0A3F0750B00900465
:100BC0007DE0FAA3E0FB020C4E850B08750900746A
:100BD000037808121F1CEA2508F8EB3509F9900381
:100BE000BA120CCFE493C0E0EFFCD0E06C705DA3D0
:100BF000E4936E70579003BC120CCFA3A3E493C090
:100C0000E0EFFCD0E06C704488828983A3A3A3E466
:100C1000936E703888828983A3A3A3A3E493F50815
:100C2000740193F5099003B3E508F0A3E509F0A377
:100C30007480F088828983A3A3A3A3A3A3E493F879
:100C4000740193F99003B6E8F0A3E9F0050B900462
:100C50007F120CD9C39AF508E99BF509740378084B
:100C6000121F4EC3E50B9508E495095003020BC90A
:100C70009003B3E0FCA3E0FDA3E0FEEC4D4E900337
:100C8000A6700474048029E0640460259003BEE02B
:100C9000FAA3E0FB9003B6E0F8A3E0F9C3EA98EB0F
:100CA0009950089003B6EAF0A3EBF09003A6740104
:100CB000F07F04021D6C9003B3EAF0A3EBF0A37481
:100CC00080120CC522F09003B3E0F9A3E0FA22E011
:100CD000FEA3E0FF8882898322E0F8A3E0F9E822FE
:100CE00074EE121BCDEA2404F8E43BF98808890964
:100CF0008882F583E4936025900481120CD9FEE983
:100D0000FF8007EE2404FE50010F8E828F83E49350
:100D1000F8740193F9EA687002EB6970E6750B00EC
:100D2000803F9062147490F07410120E3570037549
:100D30000A408E828F83A3A3A3E493550E6006E539
:100D40000AD2E0F50AE50A906215F0EA906213F023
:100D5000EC240CF582E43DF583E4F090620EF0059E
:100D60000B850882850983E493F8E50BC39840035B
:100D7000020E307A0079051216E78A0C8B0DEA45CF
:100D80000D60DCEA2402F8E4350DF9881089118839
:100D900082F583E493540FF51290620EF0750A0009
:100DA0008A828B83A3A3A3A3E4932407F50EA3E471
:100DB000933400F50F7403780E121F4EAA0EA8127A
:100DC000749F28F8E43403F9E8FCE9FD750E017519
:100DD0000F00E512780E121F1CE50EF50EE50C242F
:100DE00003F8E4350DF9851082851183E493A2E7B9
:100DF0004003020D229062117448F07408120E35FF
:100E00007003750A408E828F83A3A3E493550E600E
:100E100006E50AD2E0F50AE50A906212F0EA90626D
:100E200010F08C828D83A3A3A3A3A3A3A3020D59C7
:100E30007F0B021D6CF088828983E4935403640164
:100E400022C082C083120F337010A3120F36700AB3
:100E5000A3E064017002A3E060079003A67404801D
:100E60000C9003B374A0F0A37403120F8BF0D08323
:100E7000D0822274F3121BCD90039FE064026014B1
:100E80009003BC120F36700CA3120F36700690033D
:100E9000BBE060099003A67404F0020F2E7A00797B
:100EA00001121BCB9003BAE0606F7A00F91217763B
:100EB0008A0A8B0BEA450B605890039F7404F090EC
:100EC00003BAE09003A0F0750800850A82850B83C1
:100ED000A3A3A3A3E493F8E508C398504AA8087411
:100EE000A128F8E43403F9E8FEE9FF8E828F83E459
:100EF000F07A0079041216E78A828B83A3A3A3E415
:100F000093F88E828F83E06870E7120CE00508800A
:100F1000B99003A67404F0800E9003A0F090039F94
:100F20007403F0F91216677A007902121BCB7F0660
:100F3000021D6C9003BAE0F8A3E0F9E8492274F6C8
:100F4000121BCD90039FE0640470199003B8E06415
:100F5000817011120F33700C9003BEE064017002B7
:100F6000A3E060079003A67404801A9003BCE024F9
:100F7000A1F508A3E03403F5099003B3E508F0A355
:100F8000E509120F8BF07F03021D6CF0A3E4F0A3C0
:100F900004120F9522F0A3E4F09003A6042274F744
:100FA000121BCD90039FE0640470649003B8E0646A
:100FB00001705C9003BE120F3670549003BAE0FBD0
:100FC0009003BCE0FA9003A0E0F91217AE8A088BF8
:100FD00009AE08AF09EE4F60369003BCE0FA790322
:100FE000121BCB9003BAE0C0E09003BCE024A1F850
:100FF000A3E03403F988828983D0E0F0EEFAEFFBB6
:10100000120CE09003BCE0FA7904121BCB8006902E
:1010100003A67404F07F02021D6CC082C0838003AB
:10102000121A31A2E840F9A823E854046009782391
:10103000E654FBF612140EA823E854106009782336
:10104000E654EFF612142FA823E8A2E05005782307
:1010500054FCF690620EE0FA7404F0906214E0A280
:10106000E05039A9A8C2AF906216E0F8A3E0E8FB0F
:10107000E9A2E792AF8017906228E0C0E090039366
:10108000E0F812111CD0E0F0900393E004F0EBFDC7
:1010900074FF2DFB0470E0906214E4F0EA90620E9D
:1010A000F0E0FC7404F0906211E0A2E040319003A3
:1010B00095E0F8900394E06860257A4090039412DC
:1010C000115FE0906228F0900394E004F008900330
:1010D00095E06860041AEA70E39062117401F0EC24
:1010E00090620EF0D083D0822274F8121BCDE9FEFC
:1010F0007900801212111CE08A828B83F090039297
:10110000E00412115409900392E0F8900393E06810
:101110006005E9C39E40DD7F01021D6C748528F5E2
:1011200082E43404F58322C082C083E9FC80188AFB
:10113000828B83E0C0E090039512115FD0E0121122
:1011400054900395E004F0ECF874FF28FC0470DF81
:1011500079018090F08A828B83A3AA82AB8322E0FC
:10116000F8748528F582E43405F58322C082C083B3
:10117000900395E0F8900394E068600479018002A0
:1011800079000210E402101A74FB121EB67E009061
:1011900006857808121F6C794A1213BD9006857473
:1011A00001F0A3F0A37469F0A374A5F09003D778BD
:1011B00008121EE170047E0180159003DB7808128E
:1011C0001EE16008E59D541864107003022000EED3
:1011D000F9121334C280D291EEA2E050030212E75A
:1011E000AA18AB19120291E970030212E7C29185A5
:1011F0001882851983E0C3943C500EE0F8743CC318
:1012000098F50895E0F5098006750800750900E471
:10121000F50AF50B9003DF780C121F6C7808790C37
:10122000121AD1790612015112101A120176E9F838
:101230007409687007790612015180277407686085
:1012400016A2935012E8600874066860030212E761
:10125000A292400F0212E7750800750900750A0096
:10126000750B0085080C85090D850A0E850B0F90FE
:1012700003C27808121EF6E50C450D450E450F70A9
:10128000A7D2807907120151800312101A12116C33
:10129000E970F77E007F007401121F88E4F0A374E8
:1012A00026F0A3E4F0A3F07401121F887808121F3F
:1012B0006C85080C85090D850A0E850B0F9003C2FD
:1012C000780C121EF67401121F88780C121F5DE54F
:1012D000084509450A450B70CEA29250FCA29350D6
:1012E000F81213B8022000D280D291794E1213BDA9
:1012F000750800750900750A00750B007905120163
:101300005112101A120176E9F874096860EE74013E
:101310006870EE12101A9003E37808121EF690031C
:10132000E77808121DFA50EB1213B802200074057A
:10133000121E372274F8121BCDE9FE53BEFBE59D49
:10134000A2E650FA0078F8790100E824FF18E934A1
:10135000FFF9E84970F375C6807480659E70FA43A2
:10136000BE049062707408F01213ADEE700853F46E
:10137000FEC29043FE017403F5D575D4899003969F
:10138000E4F0A374C2F0A37401F0A3E4F0A3F0A30B
:10139000F0A37408F01213D37AFF7BFF1219EC53F9
:1013A000F4FED29043FE011213AD021117D2804316
:1013B000FD01C29143FE0222D280C29122781075B3
:1013C000B60FE5B4A2E750FAE5BBC39940F118E8BF
:1013D00070ED2274F7121BCD7A0079011217768A0C
:1013E000828B83A3A3A3A3A3A3A3E493A2E6900366
:1013F000B2500474018001E4F09003B1E4F0906213
:101400000F7403F0E0A2E750FB7F02021D6CC08264
:10141000C08390039F7402F0A3E4F09003A6F079D8
:1014200003121667752100752200D083D0822274C2
:10143000F6121BCD90620EE0FEE4F0906211E0FF28
:10144000A2E4501D7480F09003A67407F0E52145D6
:10145000226009852182852283121F979003A6E4CA
:10146000F0EFA2E2500B906211E4F09003A6F0803E
:10147000679003A6E0F87402687046906216E0FF79
:101480009003B3121DACEFF97A207B6212168174BF
:1014900003121E37EFF89003B612164512164F2F9F
:1014A000121657A3E0F8A3E0F9E8496004744080FD
:1014B000027448906211F0E849600302163B02167C
:1014C000177406687009852182852283121F979000
:1014D00003A6E060030215C2EFA2E0400302163B40
:1014E0007508B8750903750A007808121ECC7908CA
:1014F0007A207B621216817403121E3775210075E3
:1015000022009003B8E054E0601D24E0700302154F
:101510009D24E0607224C0604824E070030215A896
:1015200024E0606E0215B3A3E014602624FE601D63
:1015300024FE600A24FC601F24FE60208075120ACD
:10154000FE9003A6E06404707278608070120AF264
:1015500080EF120AE680EA120E7380E5120F9E8079
:10156000E0A3E0600E24FA600F24FE601024FE6009
:1015700011804012091980C9120B4480C4120E4117
:1015800080BF120F3E80BA7521B675221B121BB6A2
:1015900080AF7521B875221B121BB880A47521512C
:1015A00075221B121B51809975218175221B121BFC
:1015B00081808E9003A67404F0808E7840E890625B
:1015C00011F09003A6E0F874016870617F02900347
:1015D000B6E0F8A3E0F9C3E89420E994005007E8E6
:1015E000F5087F0A80037508209003B3121DACA98B
:1015F000087A207B621216AC7403121E37AC0812F4
:10160000164F2C121657A808A3121645EF90621118
:10161000F0E8C394205024E5214522600985218209
:10162000852283121F979003A6E4F0800E7405684C
:101630007009852182852283121F97EE90620EF039
:101640007F03021D6CC3E098F0A3E09400F02290A9
:1016500003B31216D9E922F9E43AFA9003B3E9F098
:10166000A3EAF0A3EBF022C082C083E99003A7783D
:1016700005F0A3D8FC9003AC7805F0A3D8FC0214C5
:101680002A74F8121BCDEAFCEBFDE9F87408121F6E
:10169000881216D460118C828D83E0121EA0E9247A
:1016A0000109E43AFAD8EF7F01021D6C74F8121BAD
:1016B000CDEAFCEBFDE9F87408121F881216D4601D
:1016C00011121E6D8C828D83F0E9240109E43AFA2F
:1016D000D8EF80D31216D9E822E0F9A3E0FAA3E00C
:1016E000FB22D083D08222C082C083E9FCEAFD7A4B
:1016F000007B00800312173290039DE0F8A3E0F90D
:1017000090047BE0687003A3E069602490039EE08E
:10171000F5838882A3E493F8EC68700D90039DE054
:10172000FAA3E0FB1217328007ED6870C8ED60C5C0
:1017300080B090039DE0F8A3E0F5838882E493F8FD
:1017400090039DE028F8A3E03400F990039DE8F0B1
:10175000A3E9F022C082C0831217657A00790112D2
:1017600016E70216E2900479E0F8A3E0F990039DF1
:10177000E8F0A3E9F02274F7121BCDE9FFEAFE12AC
:1017800017657A0079021216E7EA4B601CEF6010C9
:101790008A828B83A3A3A3A3A3E4936F70E480093D
:1017A000EEF874FF28FE0470D97F02021D6C74F5F8
:1017B000121BCDEAFF8B087A001217767A027904A1
:1017C0001216E7EA4B60188A828B83A3A3E4936F17
:1017D00070EA8A828B83A3A3A3E493650870DD7FFC
:1017E00004021D6C74F7121BCD74F0121EB6E97A58
:1017F000007B00600C146010146014146018021850
:10180000D47AF37B030218D47AF77B030218D47AD4
:101810001B7B040218D490043FE060030218D090B0
:1018200003EB7408121F377408121DD9750808F5E8
:10183000097808121ED07402121F377AE87B0779E4
:101840007F1218EB7402121E377808121ED0740A29
:10185000121F377402121F2F121C907402121E37AF
:101860008B09EA450970197509007808121ED07CA9
:101870000C7D787402121F2F121D267402121E375F
:101880007C287D00EDF8851882851983E58228F58E
:1018900082E43583F583E0FFECF8743F28F8E43404
:1018A00004F9EF1218DC88828983F0EFC41218DC87
:1018B000C0E0E824FEF582E934FFF583D0E0F00DC6
:1018C00074FC2CFCEDC3940840BA90043F742AF0D9
:1018D0007A3F7B047410121E370217A9540FFA7452
:1018E000692AF582E43404F583E02274F6121BCDF4
:1018F000890A740F550AF508750900740B780812E7
:101900001F1CEA2400F8EB3480F9E82400E93509CB
:10191000F985C709A2AFE433F508C2AFE50AC4549C
:101920000FFAE5C754F84AF5C7740A121F88E0FA9F
:10193000A3E0FB801C88828983E08C828D83F08801
:10194000828983A3A882A9838C828D83A3AC82AD74
:1019500083EAFEEBFFEE24FF1AEF34FFFBEE4F703D
:10196000D48509C7E508A2E092AF7F03021D6C741D
:10197000F7121BCDED900389F0ECA3F0A37462F095
:10198000A37473F0A3E0541FF07409121F88E0F5EC
:1019900008A3E0F509E508333354FC90038EF07496
:1019A000067808121F4EE50890038DF090038F749F
:1019B00012F0A37442F075D1FE75D601EA906271FF
:1019C000F0EBA3F0906270E0D2E1F0E0A2E740FB20
:1019D0007F02021D6CC082C083E9C333906272F043
:1019E000906270E0D2E0F0D083D0822274F7121BB4
:1019F000CD7523007524007525008A268B27EA9073
:101A0000620BF08A088B0974047808121F4EE508EF
:101A1000906207F08A088B0974097808121F4EE556
:101A200008543E906209F0758B00C2E87F02021DE7
:101A30006C74F7121BCDE59DA2E650FA906206E0A9
:101A4000F9A2E25034AA26EA90620BF0F508852745
:101A50000974047808121F4EE508906207F08A089E
:101A600085270974097808121F4EE508543E9062D4
:101A700009F0906201E0D2E0F0E9782346F6906246
:101A800002E0F50875090074047808121F1C782319
:101A9000E50846F608E50946F6906204E0F50875A3
:101AA000090074097808121F1C7824E50946F6E934
:101AB000A2E050037525017406596003752500E501
:101AC0008BA2E55006758BDF752500121BCC021A20
:101AD00027080808EAC0E0EBC0E086F0E7A4FA189F
:101AE0000986F0E7A42AFA180986F0E7A42AFA186A
:101AF0000986F0E7A42AFA1986F0E7A4FBE5F02AA4
:101B0000FA190886F0E7A42BFBE5F03AFA190886E3
:101B1000F0E7A42BFBE5F03AFA18180986F0E7A4E1
:101B2000C5F02BFBE43AFA1908E7C5F0C6A426F67F
:101B3000E5F03BFBE43AFA1886F0E7A4F6E5F00896
:101B400026F6E43B08F6E43A08F6D0E0FBD0E0FAEB
:101B500022C082C0839003B9E0F8742268700890B4
:101B600003A6E0701A80117420689003A6700DE03F
:101B7000700D121BA89003A6740280027404F080FA
:101B800043C082C0839003B9E064219003A6701320
:101B9000E07013121BA8A37407F0A3E4F09003A64F
:101BA0000480027404F0801C9003B37496F0A37454
:101BB00003F0A3E4F02280028000C082C08390037F
:101BC000A67404F0D083D0822280EF22222518C58B
:101BD00082C0E0E51934FFC583C0E0E518C39582F3
:101BE00024F910AF08858319858218800885831928
:101BF000858218D2AFCEF0A3E520F0A37808E608DE
:101C0000F0A3DEFAEFF0A3E58124FBF8E608F0A3E9
:101C1000E608F0A30808E608F0A3E608F0A315819B
:101C20001581D0E0FED0E0F815811581E8C0E0EE26
:101C3000C0E02212010002020000205104A816098F
:101C40000001020301090243000201008019090496
:101C50000000010202010005240010010424020218
:101C60000524060001052401000107058203400048
:101C70004009040100020A00000007058402400038
:101C800000070504024000004E1C0000711C00000B
:101C900074F8121BCD7408121F88E0FEA3E08015B3
:101CA000A3AA82AB838C828D83A3AC82AD83EE2406
:101CB000FF1EEF34FFFFEE4F60198C828D83E0F83A
:101CC0008A828B83E0F9E86960D6E9C398FA95E0E7
:101CD000FB80047A007B007F01021D6CE47921788F
:101CE00007B800028004F709D8FCE490030278C129
:101CF00079018002F0A3D8FCD9FA7AC27B03900064
:101D00008E78C479018015E493A3AD82AE838A8274
:101D10008B83F0A3AA82AB838D828E83D8E9D9E727
:101D2000121188121F9274F7121BCDEAF8EBF974A6
:101D300009121F88E0FEA3E0FF80188C828D83E0EB
:101D400088828983F0A3A882A9838C828D83A3AC27
:101D500082AD838E088F09E50824FF1EE50934FF54
:101D6000FFE508450970D47F02021D6C8519838543
:101D70001882E0A3FEE0A3F5207808E0A3F608DFD0
:101D8000FAE0A3FFE0A3C0E0E0A3C0E0E0A3C0E06E
:101D9000E0A3C0E010AF088582188583198008850C
:101DA0008218858319D2AFD083D082227403800039
:101DB000CCC0E0EDC0E0E518C39CCCAD1950011DCE
:101DC00010AF068C188D1980068C188D19D2AF12A1
:101DD0001DD9D0E0FDD0E0FC22CAC0E0E0A3C5825E
:101DE000CCC582C583CDC583F0A3C582CCC582C5D1
:101DF00083CDC583DAE6D0E0CA22C008C3E096F5F9
:101E00000808A3E096420808A3E096420808A3E069
:101E10009645087001D3D00822C5822518C582C511
:101E200083351910AF07F5198582188007F51985D4
:101E30008218D2AFC5832200C0D0251810AF08F594
:101E400018500C05198008F51850020519D2AFD0AA
:101E5000D0222518F58210AF08F518400C1519800E
:101E600008F51840021519D2AF85198322BB01026B
:101E7000E722C082C08389828A83BB0003E080029C
:101E8000E493D083D082226016080808C6C313C624
:101E900018C613C618C613C618C613C6D5E0EA225C
:101EA000BB000EC082C0838A838982F0D083D08237
:101EB00022BB0101F722251810AF08F518400C15B8
:101EC000198008F51840021519D2AF227403800456
:101ED00074028000C0E0F404121E52D0E0121F7B96
:101EE00022E066701008A3E066700A08A3E066703E
:101EF0000408A3E06622E026F608A3E036F608A36D
:101F0000E036F608A3E036F622E627F60809E637BB
:101F1000F60809E637F60809E637F622700422606B
:101F20000D18C6C333C608C633C6D5E0F41822253B
:101F300018FAE43519FB222518FCE43519FD227541
:101F4000D00075813F751802751903021CDC600C06
:101F500008C6C313C618C613C6D5E0F422E6F008B7
:101F6000A3E6F008A3E6F008A3E6F022E0F608A353
:101F7000E0F608A3E0F608A3E0F622CAC0E0E6F027
:101F8000A308DAFAD0E0FA222518F582E43519F52B
:101F9000832200000080FBE473FFFFFFFFFFFFFFD1
:101FA000FFFFFFFFFFFFFFFFFFFFFFFFFFFFFFFF41
:101FB000FFFFFFFFFFFFFFFFFFFFFFFFFFFFFFFF31
:101FC000FFFFFFFFFFFFFFFFFFFFFFFFFFFFFFFF21
:101FD000FFFFFFFFFFFFFFFFFFFFFFFFFFFFFFFF11
:101FE000FFFFFFFFFFFFFFFFFFFFFFFFFFFFFFFF01
:0A1FF600850609433886000000004C
:020000040003F7
:01FFF000F020
:020000040000FA
:10200000022DD0022232FFFFFFFFFFFFFFFFFFFF85
:10201000FFFFFFFFFFFFFFFFFFFFFFFFFFFFFFFFD0
:10202000FFFFFFFFFFFFFFFFFFFFFF022A54FFFF3D
:10203000FFFFFF022254FFFFFFFFFFFFFFFFFFFF35
:10204000FFFFFFFFFFFFFFFFFFFFFFFFFFFFFFFFA0
:10205000FFFFFF02216CFFFFFFFFFFFFFFFFFFFFFE
:10206000FFFFFFFFFFFFFFFFFFFFFF022A7DFFFFD4
:10207000FFFFFFFFFFFFFFFFFFFFFF0228A5FFFF9E
:10208000FFFFFF0221C301FFFFFFFFFFFFFFFFFF75
:1020900010201020010105030101FF0F10FEFF4E6B
:1020A0004E00000000844D00000000FF000000FF13
:1020B00000010020FD000200000F3F00000000A909
:1020C0003E933FDF3E513F0000D33E000000000042
:1020D0000000000000000000000000000000000000
:1020E00000000006FFFFFF00035F005F00300058A4
:1020F00000000000000000000000000000000000E0
:1021000000000000000000000000000000000000CF
:1021100000C4261927192719271927212701010487
:10212000008717000000E8030000FFFF561803E8CF
:1021300003000064006400B801A0BB0D00A0BB0D4B
:10214000000202000800000502070401051E020546
:102150001E020A0A01080803B80B02803E0102FEB3
:10216000FFE8030A050001FFFF0A01E0C0E074F286
:10217000122665A2AFE433F508D2AFAFA7AEA1EE49
:102180005F54106006123C2D75A1EFEE5F5408609D
:1021900008123C3375A1F78023EEA2E092F0EFA283
:1021A000E082F05017906198E0F8900778E0C398CB
:1021B000A2D265D0335002E8F075A1FE751A00E591
:1021C000088066C0E074F2122665A2AFE433FED246
:1021D000AF9061A4E0F8759B00E591585408600841
:1021E0007591F7123C7B8023E59158541060087577
:1021F00091EF123C818014E591A2E092F0E8A2E018
:1022000082F05007E0C2E0F0123DD79061A3E0F801
:10221000E5E9585404600E123DAD75E9FB906193F9
:10222000E0A2E640F2751A00EEA2E092AF7F010252
:102230002721C0E074F2122665A2AFE433FED2AFCC
:102240009061A5E0F8E5BF585404600675BFFB1225
:102250003DEF80D1C0E074F1122665E59DA2E65005
:10226000FA906206E0F9A2E25034AA2CEA90620BDE
:10227000F0F508852D0974047808122DEFE5089013
:102280006207F08A08852D0974097808122DEFE598
:1022900008543E906209F0906201E0D2E0F0E978E3
:1022A0002946F6906202E0F5087509007404780882
:1022B000122D207829E50846F608E50946F69062D1
:1022C00004E0F50875090074097808122D20782AB1
:1022D000E50946F6E9A2E05003752B017406596042
:1022E00003752B00E58BA2E55006758BDF752B007F
:1022F000124323758B00C2E87F02022721C3E498B2
:10230000F8E499F912233E8026C3E49AFAE49BFB91
:10231000E920E7E912233EE498F8E499F922C3E4BE
:1023200098F8E499F912233EE498F8E499F9C3E4A3
:102330009AFAE49BFB22EB20E7CFE920E7E0B90023
:1023400010BB0008E88AF084F8AAF022E4FBC8FA7F
:1023500022EB70227B10C833C8C933C9335007C37E
:102360009AC3DBF280069A50012ADBEAC833F4C82C
:10237000C933F4C9FA2275F008E4C833C8C933C9AF
:1023800033C99AC99B5004C92AC93BD5F0ECFBC894
:1023900033F4C8E4C9FA2274F51225FF74FA122C3A
:1023A000177508047509007808122BA17404122B04
:1023B000F77AF87B077903123B077402122B6390BC
:1023C000813A7808122DE07402122E6D7808122CD2
:1023D0006E70497508027509007808122BA1740205
:1023E000122BF77AF67B077903123B077402122B44
:1023F00063851882851983E0F47003A3E0F4601C00
:10240000851882851983E0F8A3E0F98882898374AE
:1024100002F0A3F0A37469F0A374A5F0C2AF75D65F
:102420009F0200007406122B637F040228E808084C
:1024300008EAC0E0EBC0E086F0E7A4FA180986F0ED
:10244000E7A42AFA180986F0E7A42AFA180986F000
:10245000E7A42AFA1986F0E7A4FBE5F02AFA19089E
:1024600086F0E7A42BFBE5F03AFA190886F0E7A41A
:102470002BFBE5F03AFA18180986F0E7A4C5F02B13
:10248000FBE43AFA1908E7C5F0C6A426F6E5F03BE6
:10249000FBE43AFA1886F0E7A4F6E5F00826F6E43D
:1024A0003B08F6E43A08F6D0E0FBD0E0FA22122E20
:1024B00062B9000302250EE47921780DB80002808C
:1024C00004F709D8FCE49004D178C379158002F0B0
:1024D000A3D8FCD9FA781A9020867A01BA00028033
:1024E00007E493A3F608DAF97A937B19902094789D
:1024F000D979018015E493A3AD82AE838A828B8360
:10250000F0A3AA82AB838D828E83D8E9D9E7758246
:10251000F57583BE7406122B4575828175834B74E5
:1025200000122B45E4CFC0E0E4CEC0E0E4CDC0E033
:10253000E4CCC0E075F020E626F608E633F608E6BF
:1025400033F608E633F6181818EC33FCED33FDEEDD
:1025500033FEEF33FFC3EC9709ED9709EE9709EFD0
:1025600097191919400FFFEC97FC09ED97FD09EE3B
:1025700097FE191906D5F0BFECF709EDF709EEF74C
:1025800009EFF7191919D0E0FCD0E0FDD0E0FED03A
:10259000E0FF222518C582C0E0E51934FFC583C0DD
:1025A000E0E518C3958224F810AF08858319858269
:1025B000188008858319858218D2AFCEF0A3E52054
:1025C000F0A37808E608F0A3DEFAEFF0A3E5812493
:1025D000FAF8E608F0A3E608F0A3E608F0A3080876
:1025E000E608F0A3E608F0A315811581D0E0FED03F
:1025F000E0F8158115811581E8C0E0EEC0E02225E4
:1026000018C582C0E0E51934FFC583C0E0E518C3F2
:10261000958224F910AF0885831985821880088572
:102620008319858218D2AFCEF0A3E520F0A37808F5
:10263000E608F0A3DEFAEFF0A3E58124FBF8E60854
:10264000F0A3E608F0A30808E608F0A3E608F0A364
:1026500015811581D0E0FED0E0F815811581E8C024
:10266000E0EEC0E022C0D02518C582C0E0E51934F4
:10267000FFC583C0E0E518C3958224F310AF088539
:1026800083198582188008858319858218D2AFC87E
:10269000F0A3E9F0A3EAF0A3EBF0A37908E709F0CF
:1026A000A3D8FAECF0A3EDF0A3EEF0A3EFF0A3D0E3
:1026B000E0F0A3D0E0F0A3D0E0F0A3E520F0A3E5A4
:1026C000F0F0A32212010002020000205104A8161B
:1026D00009000102030109024300020100801909F7
:1026E000040000010202010005240010010424027C
:1026F00002052406000105240100010705820340AC
:10270000004009040100020A00000007058402409D
:10271000000007050402400000DF26000002270039
:1027200000851983851882E0C0E0A3E0F9A3E0FAF0
:10273000A3E0FBA37808E0F608A3DFFAE0FCA3E03F
:10274000FDA3E0FEA3E0FFA3E0C0E0A3E0C0E0A3A0
:10275000E0F5D0A3E0F520A3E0A3F5F010AF0885E5
:1027600083198582188008858319858218D2AFD095
:1027700082D083D0E0F8D0E032E4731075F0108E90
:10278000218F22858226858325851882851983E0FD
:10279000CEA3E0CF852682852583EBC9EAC8EDCBA1
:1027A000ECCAC3E833C8E933C9EA33CAEB33CBC355
:1027B000EA9EF524EB9FF523B35004AB23AA24EC47
:1027C00033CCED33CDD5F0DAAE21AF2222D083D099
:1027D00082ECC0E0EDC0E0E493A3FCE493A3FDED44
:1027E0004C600D122928EC24FFFCED34FFFD80EF36
:1027F000E493A3FCE493A3FDED4C600D1229FFECE0
:1028000024FFFCED34FFFD80EFD0E0FDD0E0FCE4E0
:1028100093A3C0E0E493C0E022D083D082E9C0E07B
:10282000E493A3C386F0C5F095F0F908E493A3867A
:10283000F0C5F095F0700BE493A3C3994005E9044B
:102840008002A3E475F002A42582F582E5F03583C9
:10285000F583D0E0F9E493A3C0E0E493C0E02285DF
:102860001983851882E0A3FEE0A3F5207808E0A391
:10287000F608DFFAE0A3FFE0A3C0E0E0A3C0E0E0D9
:10288000A3C0E0E0A3C0E0E0A3C0E010AF088582F1
:10289000188583198008858218858319D2AFD08363
:1028A000D082022B4BC0E074F2122665A2AFE43353
:1028B000FED2AFE58AA2E25007900739E0D2E0F0FD
:1028C000E58AA2E35007900739E0D2E1F0758A006B
:1028D000C2EB7A107B00900735E0F91240C5EEA2FA
:1028E000E092AF7F01022721851983851882E0A33A
:1028F000FEE0A3F5207808E0A3F608DFFAE0A3FFE6
:10290000E0A3C0E0E0A3C0E0E0A3C0E0E0A3C0E03B
:1029100010AF088582188583198008858218858301
:1029200019D2AFD083D08222C0E0C3E4939608745A
:1029300001939618400FE49366700808740193663B
:102940001870007019A3A3C3E493960874019396BA
:1029500018A3A3400DD0E0D0E0D0E0022809A3A343
:10296000A3A3A3A3D0E022D083D082C5F0E493A395
:10297000C5F0C395F0F5F0E493A3C395F04005E5E9
:10298000F0048001E475F002A42582F582E5F035BB
:1029900083F583E493A3C0E0E493C0E02274048051
:1029A000087403800474028000CCC0E0EDC0E0E550
:1029B00018C39CCCAD1950011D10AF068C188D1991
:1029C00080068C188D19D2AF122AC7D0E0FDD0E056
:1029D000FC2274028000CCC0E0EDC0E0E518C39C8E
:1029E000CCAD1950011D10AF068C188D1980068CC6
:1029F000188D19D2AF122AA5D0E0FDD0E0FC22C07C
:102A0000E0C0F088F0E493667008087401936618DB
:102A10007000A8F0A3A3700BD0F0D0E0D0E0D0E01D
:102A2000022809A3A3D0F0D0E022D083D082CCC06A
:102A3000E0E493A36006122AE81470FAE493A3601A
:102A400006122C431470FAD0E0FCE493A3C0E0E437
:102A500093C0E022C0E0C0D0E8C0E0E9C0E0A9A88F
:102A6000D2AFC2C7751A00E9A2E7E433F8E9A2E7DA
:102A700092AFD0E0F9D0E0F8D0D0D0E032C0E0742E
:102A8000F2122665758900C2C590198BE0700E7A26
:102A9000007B1090080EE0F91240C580031249D166
:102AA0007F01022721CAC0E0E493A3C582CCC5827E
:102AB000C583CDC583F0A3C582CCC582C583CDC5F2
:102AC00083DAE5D0E0CA22CAC0E0E0A3C582CCC563
:102AD00082C583CDC583F0A3C582CCC582C583CD15
:102AE000C583DAE6D0E0CA22C0E0E493A3D39C50C9
:102AF00010E493A3C39C400AD0E0D0E0D0E0022AC7
:102B000047A3A3A3D0E022C008C3E096F50808A31A
:102B1000E096420808A3E096420808A3E09645081C
:102B20007001D3D00822700908080822601618180E
:102B300018C6C333C608C633C608C633C608C6336C
:102B4000C6D5E0EA22C09FF59FE473D09F22D083D0
:102B5000D082C09FE493C0E0740193C0E0740293FC
:102B6000F59F2200C0D0251810AF08F518500C05AD
:102B7000198008F51850020519D2AFD0D0222518B7
:102B8000F58210AF08F518400C15198008F51840AB
:102B9000021519D2AF851983227404800A74038048
:102BA00006740280027401C0E0F404122B7ED0E0AF
:102BB000122E0D22BB0102E722C082C08389828AC5
:102BC00083BB0003E08002E493D083D082226016AE
:102BD000080808C6C313C618C613C618C613C618F5
:102BE000C613C6D5E0EA222518F8E43519F92225DE
:102BF00018FAE43519FB222518FCE43519FD22C327
:102C0000E0C696F608A3E0C696F608A3E0C696F6D8
:102C100008A3E0C696F622251810AF08F518400C58
:102C200015198008F51840021519D2AF22BB000E05
:102C3000C082C0838A838982F0D083D08222BB0184
:102C400001F722C0E0E493A36C7009D0E0D0E0D09B
:102C5000E0022A47A3A3D0E022E76670100809E744
:102C600066700A0809E76670040809E76622E066EC
:102C7000701008A3E066700A08A3E066700408A359
:102C8000E06622C3E09608A3E09608A3E09608A3B6
:102C9000E096A2D265D03322C3E697F60809E697FC
:102CA000F60809E697F60809E697F622C3E4939634
:102CB00008740193960874029396087403939622FD
:102CC000C3E096F008A3E096F008A3E096F008A30E
:102CD000E096F022E026F008A3E036F008A3E03604
:102CE000F008A3E036F022E647F60809E647F608C2
:102CF00009E647F60809E647F622E493F608740168
:102D000093F608740293F608740393F622E056F6DD
:102D100008A3E056F608A3E056F608A3E056F6220C
:102D2000700422600D18C6C333C608C633C6D5E08A
:102D3000F41822E056F008A3E056F008A3E056F09D
:102D400008A3E056F022E627F60809E637F6080958
:102D5000E637F60809E637F622E026F608A3E0365D
:102D6000F608A3E036F608A3E036F622E657F608A2
:102D700009E657F60809E657F60809E657F622E489
:102D8000C396F608E496F608E496F608E496F6226A
:102D9000C3E09608A3E09608A3E09608A3E0962275
:102DA000C6F4C608C6F4C608C6F4C608C6F4C622E9
:102DB000600D08C6A2E713C618C613C6D5E0F322F5
:102DC000C3E7960809E7960809E7960809E79622F7
:102DD00075D00075813F7518D1751904000224AEB5
:102DE000E0F608A3E0F608A3E0F608A3E0F6226008
:102DF0000C08C6C313C618C613C6D5E0F422E6F005
:102E000008A3E6F008A3E6F008A3E6F022CAC0E0B3
:102E1000E6F0A308DAFAD0E0FA22E0F8A3E0F9A39A
:102E2000E0FAA3E0FB22E0FCA3E0FDA3E0FEA3E0C8
:102E3000FF22EAF0A3EBF0A3ECF0A3EDF022E0FA1E
:102E4000A3E0FBA3E0FCA3E0FD22ECF0A3EDF0A3E4
:102E5000EEF0A3EFF022E8F0A3E9F0A3EAF0A3EB91
:102E6000F022E5C754F84401F5C77901222518F589
:102E700082E43519F58322122B4EB4A602122B4E92
:102E80008EA802122B4E4BAC02122B4E5FAC0212DC
:102E90002B4E69AC02122B4E73AC02122B4E7DAC42
:102EA00002122B4E87AC02122B4EA0AC02122B4EFC
:102EB000AAAC02122B4E21AD02122B4E2CAD0212E7
:102EC0002B4E5BAD02122B4E83AD02122B4E8EADFC
:102ED00002122B4EF3AD02122B4EFDAD02122B4E01
:102EE00008AE02122B4E2CAE02122B4E50AE021226
:102EF0002B4EC2AE02122B4E0BAF02122B4E27AF3F
:102F000002122B4E98AF02122B4EE4AF02122B4E40
:102F10002DB002122B4E6BB002122B4EECB00212EF
:102F20002B4E93B102122B4E58B302122B4EBDB34F
:102F300002122B4EEBB402122B4E11B502122B4E85
:102F400059B602122B4E93B902122B4E91BB0212AC
:102F50002B4E5CBD02122B4EF5BD02122B4EF6BF5E
:102F600002122B4EABC002122B4EE4C002122B4EAB
:102F700054C102122B4E5EC102122B4E87C30212A5
:102F80002B4E8AC402122B4EC7C502122B4E1EC6F0
:102F900002122B4EC9C602122B4E79C802122B4EBA
:102FA000C6C902122B4EE6C902122B4E3BCA0212B0
:102FB0002B4E3CCB02122B4E64CB02122B4EC3CBBA
:102FC00002122B4EBBCC02122B4E32CD02122B4ED4
:102FD00045CE02122B4EB3CE02122B4EB2CF0212AE
:102FE0002B4E0CD202122B4E35D202122B4E9BD3FB
:102FF00002122B4E1DD502122B4E74D502122B4EEF
:1030000022D602122B4EC7D602122B4E2AD70212FC
:103010002B4EE8D702122B4E7AD802122B4ED9D85B
:1030200002122B4E1BD902122B4E4CD902122B4EE0
:10303000A3DA02122B4E008003122B4E32800312B1
:103040002B4E6B8003122B4E348203122B4E788250
:1030500003122B4E4E8303122B4EAD8303122B4EC5
:10306000C38403122B4E0F8503122B4E9D87031230
:103070002B4E818A03122B4EC88B03122B4E608C71
:1030800003122B4E6C8C03122B4EB58C03122B4E5D
:10309000F78D03122B4EED8E03122B4E178F03125A
:1030A0002B4E6D8F03122B4EC68F03122B4E399071
:1030B00003122B4E6F9203122B4EF19303122B4EE1
:1030C000DC9403122B4E269603122B4E5E980312AD
:1030D0002B4E5B9B03122B4E6A9B03122B4EFE9BC7
:1030E00003122B4EA99C03122B4EEC9C03122B4E69
:1030F000359D03122B4E859D03122B4EE99D031225
:103100002B4E5B9E03122B4E779E03122B4EA69ED8
:1031100003122B4EE59E03122B4EE09F03122B4E03
:103120008FA003122B4E0CA303122B4E3EA40312AE
:103130002B4E16A503122B4E98A503122B4ECDA98C
:1031400003122B4EFCA903122B4E57AA03122B4E2F
:103150008AAA03122B4E02AB03122B4E35AB03127D
:103160002B4E96AB03122B4EE6AB03122B4EB3AC99
:1031700003122B4E6CAD03122B4E30AE03122B4EAE
:10318000AAB003122B4E0CB203122B4E5DB30312E6
:103190002B4E81B403122B4E84B403122B4EB3B4C6
:1031A00003122B4EABB603122B4E6AB703122B4EF3
:1031B00099B703122B4EB7B803122B4E7FB90312E7
:1031C0002B4E40BB03122B4EB0BB03122B4EE2BB67
:1031D00003122B4E02BC03122B4E71BC03122B4E5A
:1031E0006ABD03122B4E8EBD03122B4E01BE03127D
:1031F0002B4E2AC003122B4E89C003122B4EDDC06A
:1032000003122B4E0CC303122B4EEFC303122B4E93
:1032100077C403122B4E5BC503122B4EE5C5031278
:103220002B4EF9C503122B4E0DC603122B4E21C691
:1032300003122B4E35C603122B4E62C603122B4EC1
:1032400092C603122B4E4DC803122B4E23C90312F4
:103250002B4EC7C903122B4E1CCA03122B4E7FCA1A
:1032600003122B4EC8CA03122B4EEFCA03122B4E69
:10327000B7CB03122B4E5DCC03122B4EE3CD0312C2
:103280002B4E6ECE03122B4EB5CE03122B4E27CFF4
:1032900003122B4E7CD003122B4E25D103122B4E42
:1032A00059D103122B4E71D103122B4E14D203129B
:1032B0002B4E90D403122B4E38D603122B4E56D6DB
:1032C00003122B4E74D603122B4E40D703122B4EF3
:1032D0008EDA03122B4EA78101122B4EE9810112C7
:1032E0002B4E568701122B4EA28701122B4EE887D8
:1032F00001122B4E398901122B4E9E8901122B4E41
:10330000E28901122B4E488B01122B4EA38E011223
:103310002B4ED68F01122B4E659B01122B4EF59B27
:1033200001122B4EDF9E01122B4E44A001122B4E98
:10333000A7A001122B4EC3A101122B4E2DA30112E7
:103340002B4E0CA401122B4E7AA601122B4E0CA868
:1033500001122B4E9DA801122B4EBCA901122B4E1F
:1033600049AA01122B4E53AA01122B4E7BAA01121D
:103370002B4E1EAB01122B4E09AC01122B4ED1ACC1
:1033800001122B4E5EAD01122B4E74AD01122B4E6D
:1033900091AD01122B4EBAAD01122B4EE7AD0112C9
:1033A0002B4E2BB001122B4EFEB001122B4E42B110
:1033B00001122B4EC4B101122B4E65B201122B4EDD
:1033C00097B201122B4EDEB201122B4E11B3011235
:1033D0002B4E55B301122B4EA4B301122B4EA9B3A1
:1033E00001122B4E05B401122B4E49B401122B4E83
:1033F00033B501122B4E98B501122B4EF6B50112C2
:103400002B4E75B601122B4EEDB901122B4EF0BAB0
:1034100001122B4E86BC01122B4EC9BF01122B4E3E
:103420006BC001122B4EB4C201122B4E6FC301129E
:103430002B4EAEC301122B4E72C501122B4E8FC5FF
:1034400001122B4E98C501122B4EA1C501122B4E15
:10345000ACC501122B4ECBC501122B4EEFC701128A
:103460002B4E4CC801122B4E56C801122B4E60C871
:1034700001122B4EC3C801122B4E1FC901122B4E35
:103480002CCA01122B4E8DCA01122B4E9ECB01125B
:103490002B4EE7CB01122B4EB1CC01122B4EC8CDD7
:1034A00001122B4E8CCE01122B4ED8CF01122B4E77
:1034B000DCD001122B4ED5D101122B4EEDD10112D1
:1034C0002B4E24D201122B4E2ED201122B4E38D26B
:1034D00001122B4E43D201122B4E61D201122B4E00
:1034E000A9D201122B4E07D301122B4E2ED301125B
:1034F0002B4E40D301122B4EE9D301122B4E22D476
:1035000001122B4E53D501122B4EB0D501122B4E6A
:10351000A1D601122B4ED7D601122B4E47D701123E
:103520002B4EC3D701122B4E44D901122B4E6BDA0E
:1035300001122B4E2DDB01122B4EFBDB01122B4E09
:1035400080DC01122B4E2FDD01122B4E17DE0112F3
:103550002B4EB0DE01122B4E8CDF01122B4EF4DF0E
:1035600001122B4EB3E001122B4E0FE101122B4E34
:1035700073E101122B4E39E201122B4E5CE2011273
:103580002B4E16E301122B4E38E301122B4E99E31A
:1035900001122B4EC9E501122B4EC2E601122B4E31
:1035A0006EE701122B4E8BE901122B4ED4E901126A
:1035B0002B4E1FEA01122B4E7BEA01122B4ED9EA49
:1035C00001122B4EFDEA01122B4E21EB01122B4E64
:1035D00056EB01122B4E7EEB01122B4EC3EB011268
:1035E0002B4E21EC01122B4E7AEC01122B4E74ED76
:1035F00001122B4E20EF01122B4E65EF01122B4EC4
:103600008EEF01122B4E17F001122B4E8AF0011291
:103610002B4E98F001122B4EBCF001122B4E12F1E2
:1036200001122B4E2DF101122B4EE8F101122B4EFF
:1036300014F201122B4E57F201122B4EBAF2011264
:103640002B4ECAF401122B4EF6F401122B4EB1F59B
:1036500001122B4E95F601122B4E29F701122B4E1B
:1036600037C705122B4E6FC705122B4E90C7051298
:103670002B4ED2C705122B4E36C805122B4E40C812
:1036800005122B4E50C805122B4E87C805122B4E23
:1036900030CC05122B4EF8CD05122B4EDCCF051287
:1036A0002B4E7ED005122B4E08D105122B4E50808A
:1036B00004122B4EF98004122B4ED88104122B4E8B
:1036C000E48204122B4E048304122B4E268404122F
:1036D0002B4ED68504122B4E438604122B4E148794
:1036E00004122B4E1A8804122B4E928804122B4E71
:1036F000CD8804122B4E268904122B4E61890412A8
:103700002B4EAA8904122B4E3E8A04122B4ED48AC9
:1037100004122B4EA98B04122B4E7C8C04122B4EC0
:103720000A8D04122B4E308D04122B4E5D8D041227
:103730002B4E8E8D04122B4E5B8E04122B4E6B8EF5
:1037400004122B4EBE8E04122B4ECB8E04122B4E27
:10375000D88E04122B4EE18E04122B4E458F04128C
:103760002B4EA38F04122B4EEE8F04122B4E09907A
:1037700004122B4E309004122B4E4D9004122B4EFF
:10378000599004122B4EEA9104122B4E039204120C
:103790002B4E7F9204122B4E929204122B4EA29229
:1037A00004122B4E469304122B4EB29404122B4E4D
:1037B000C59504122B4E659604122B4E6F9604127B
:1037C0002B4EEE9604122B4EFF9604122B4E3E9774
:1037D00004122B4E6C9704122B4E399804122B4E68
:1037E000909804122B4EC99804122B4E1F99041264
:1037F0002B4E3D9904122B4E8B9904122B4E569A48
:1038000004122B4EA49A04122B4EF19A04122B4E42
:10381000749B04122B4E9E9B04122B4ED49B0412BD
:103820002B4EE39B04122B4E429C04122B4EBA9C4F
:1038300004122B4EFB9C04122B4E4B9D04122B4E5C
:10384000769D04122B4E909D04122B4EAA9D0412BD
:103850002B4E7F9E04122B4E899E04122B4EC49E2B
:1038600004122B4ED49E04122B4EDD9E04122B4EBE
:103870002E9F04122B4E429F04122B4E64A0041262
:103880002B4E77A004122B4E8EA004122B4EA3A019
:1038900004122B4E36A104122B4EAAA104122B4E59
:1038A0004FA204122B4E5AA204122B4EBDA3041297
:1038B0002B4ED9A304122B4E25A404122B4E93A4F5
:1038C00004122B4EC5A404122B4EDFA404122B4E5F
:1038D0003FA504122B4EDEA504122B4E29A604127E
:1038E0002B4E7CA804122B4E14A904122B4E8BA92C
:1038F00004122B4EE8AB04122B4E00AC04122B4EDC
:1039000003AC04122B4E0FAC04122B4E23AC04124A
:103910002B4E2BAC04122B4E62AC04122B4E56AD28
:1039200004122B4EE0AD04122B4E62AE04122B4E4D
:10393000E2AE04122B4EB9AF04122B4EDBAF0412D1
:103940002B4E74B004122B4ED1B004122B4ED4B0B7
:1039500004122B4E01B104122B4E16B104122B4E41
:1039600085B104122B4ED1B204122B4EE4B30412D3
:103970002B4E6FB404122B4E82B504122B4E49B657
:1039800004122B4E7AB604122B4EA0B604122B4E04
:10399000A9B604122B4ED8B604122B4E88B70412C7
:1039A0002B4E38B804122B4EABB804122B4E4EB926
:1039B00004122B4EC1B904122B4E00BA04122B4E26
:1039C00049BA04122B4E7EBA04122B4E48AF051290
:1039D0002B4EB5AF05122B4EFCAF05122B4E72B01D
:1039E00005122B4EC4B005122B4E4AB105122B4EB8
:1039F0008EB305122B4EBDB505122B4E9AB905128A
:103A00002B4E1ABA05122B4E55BA05122B4E73BA0D
:103A100005122B4ED3BA05122B4EFBBA05122B4EB4
:103A20002BBB05122B4E5CBB05122B4E89BB05121E
:103A30002B4EE2BB05122B4E2DBC05122B4EE7F28E
:103A400004122B4E63F304122B4E8FF304122B4EF1
:103A5000C1F304122B4E23F504122B4E3FF5041232
:103A60002B4E7DF504122B4E0AF604122B4E66F6F1
:103A700004122B4E2CF704122B4EEBF704122B4E94
:103A800030F804122B4E91F804122B4E06F9041252
:103A90002B4E40F904122B4E98F904122B4EBAF912
:103AA00004122B4E52FA04122B4EF9FA04122B4E2A
:103AB00046FB04122B4E6FFB04122B4EB0FB04127C
:103AC0002B4E5DFD04122B4E41FE04122B4EF2FED6
:103AD00004122B4ECDCC06122B4EDECC06122B4EF2
:103AE0007CCD06122B4EEB7F00122B4EEDFF011208
:103AF0002B4EE4CB06122B4EF4CB06122B4E0CCCE5
:103B000006122B4EC0CC06122B4EEEC906122B4EBF
:103B100072CA06122B4ED8CA06122B4E4ACE061275
:103B20002B4E4DCE06122B4E86CE06122B4EDCCEE1
:103B300006122B4EEFCE06122B4EF2CE06122B4E55
:103B400060A106122B4E6EA106122B4EE7A10612A3
:103B50002B4EBCA206122B4E7BA406122B4EE0A4C9
:103B600006122B4E3FA506122B4EF87F00122B4E4D
:103B7000E8BC06122B4E20BD06122B4E6EBE06125E
:103B80002B4EF2BE06122B4E81B506122B4E22B6DC
:103B900006122B4E5BB606122B4EA6B606122B4E05
:103BA0006FB706122B4E99B706122B4EBFB70612EF
:103BB0002B4ED3B706122B4EE8B706122B4EF1B799
:103BC00006122B4EC4F805122B4EF0F805122B4EA0
:103BD00096FB05122B4EEDFB05122B4E29FC051210
:103BE0002B4E3DFC05122B4E56FC05122B4E47FD6D
:103BF00005122B4E23FE05122B4E37FE05122B4EBF
:103C0000EBC006122B4E0FC106122B4E28C1061216
:103C10002B4E66C106122B4E9CC106122B4ECFC1F5
:103C200006122B4E529E02122B4E45C206122B4EEE
:103C300048C206122B4E52C206122B4E5FC206120B
:103C40002B4ED5B206122B4EF8B206122B4E43B3B2
:103C500006122B4E61B306122B4E7CB306122B4E6E
:103C6000E2B306122B4EEEB306122B4E4BB40612E5
:103C70002B4E6FB406122B4E35B506122B4E42B5A5
:103C800006122B4E53B506122B4EE6D006122B4EC3
:103C900078A602122B4E2AD106122B4E978A0612B4
:103CA0002B4EFB8B06122B4E098C06122B4E1D8CB5
:103CB00006122B4E3A8C06122B4E4F8C06122B4EB0
:103CC000628C06122B4EE48C06122B4E4A8D061285
:103CD0002B4ED38D06122B4E4B8E06122B4E248F5D
:103CE00006122B4E348F06122B4E438F06122B4E8C
:103CF000AFCF06122B4ED3CF06122B4EFBCF0612A0
:103D00002B4E23D006122B4E21B806122B4E48B84C
:103D100006122B4E67B806122B4EDCB806122B4E3D
:103D200002B006122B4E1BB006122B4E32B00612FA
:103D30002B4E3BB006122B4E59B006122B4E63B0E1
:103D400006122B4E6DB006122B4E80B006122B4E73
:103D50000DB106122B4E7CB106122B4EAAB10612E3
:103D60002B4EFBB106122B4E47B206122B4E62B2FF
:103D700006122B4E6CB206122B4E7DB206122B4E43
:103D8000C0B206122B4EF3D106122B4E3ED20612B3
:103D90002B4EB7D105122B4EE3D105122B4E06D276
:103DA00005122B4E19D205122B4E34D205122B4E72
:103DB00098D205122B4EC6D205122B4ED3D6051221
:103DC0002B4E15D805122B4E47D805122B4EB2D8C4
:103DD00005122B4E36DA05122B4E5EDA05122B4EEB
:103DE00073DA05122B4E83DA05122B4EC3DA051255
:103DF0002B4E05DB05122B4E15DB05122B4E32C563
:103E000006122B4E42C506122B4E66C506122B4ECD
:103E10008FC506122B4EB9C506122B4EDDC50612F4
:103E20002B4EF4C506122B4E22C606122B4E45C64B
:103E300006122B4E96CD06122B4EDCCD06122B4EC3
:103E400045A906122B4E55A906122B4E73AA06122F
:103E50002B4EA7AA06122B4EC9AA06122B4EF1AA68
:103E600006122B4E0AAB06122B4E46AB06122B4EF9
:103E7000ACAB06122B4EF1AB06122B4E36AC061233
:103E80002B4E63AC06122B4E9BAC06122B4E659D3F
:103E900006122B4EC79D06122B4E6E9E06122B4EFF
:103EA000A69E06122B4E23A205122B4ED2A205125D
:103EB0002B4E06A505122B4ED9A705122B4E59A93C
:103EC00005122B4EBBA905122B4EC6AC05122B4E6C
:103ED0000AAE05122B4E7DC606122B4EC8C6061220
:103EE0002B4E288506122B4EE78706122B4E848810
:103EF00006122B4EB08806122B4EDE8806122B4E71
:103F0000138906122B4E3B8906122B4E9B890612F3
:103F10002B4E64BC05122B4E5CC005122B4E53C2B7
:103F200005122B4E81C305122B4E5DC405122B4E7C
:103F3000F8C505122B4EC5C605122B4E19C7051222
:103F40002B4E98FD02122B4EA2FD02122B4EC3FDEA
:103F500002122B4E129405122B4E369905122B4E3F
:103F6000659A05122B4E419C05122B4ECC9C0512D6
:103F70002B4E609D05122B4E599E05122B4E909F85
:103F800005122B4E9DA005122B4E82A105122B4E21
:103F9000E9BA04122B4E21BB04122B4E7EC504122B
:103FA0002B4E68C604122B4EB8C704122B4E03C901
:103FB00004122B4EAEC904122B4E81CA04122B4E92
:103FC00018CB04122B4EFCCB04122B4EFFCC041248
:103FD0002B4EC1CD04122B4EEFCD04122B4E67CFCA
:103FE00004122B4EF0CF04122B4E09D004122B4E8C
:103FF00063D104122B4E15D204122B4EA4D20412FC
:104000002B4E53D304122B4EB6D304122B4E52D444
:1040100004122B4ECBD404122B4EE9D404122B4E97
:10402000B6D504122B4E85D604122B4E3BD7041264
:104030002B4E69C206122B4E93C206122B4EA7C3FB
:1040400006122B4EAAC306122B4E48D006122B4E38
:104050008AD006122B4ECCD006122B4EDCD0061284
:104060002B4E3EF205122B4E85F205122B4EEEF230
:1040700005122B4E0FF305122B4E28F305122B4E73
:10408000D8F305122B4EE1F305122B4E32F4051234
:104090002B4E68F405122B4E7FF405122B4EECF4D8
:1040A00005122B4E7CF505122B4EB2F505122B4E48
:1040B000FBF505122B4E5CF605122B4E96F60512FB
:1040C0002B4EFEF605122B4E51F705122B4E94F790
:1040D00005122B4ED1F705122B4EE3F705122B4E8E
:1040E000F5F705122B4E2FF805122B4E6FF805121F
:1040F0002B4E98F805122B4E748F06122B4EBA9049
:1041000006122B4EE39006122B4EF49006122B4E05
:104110000C9306122B4E2C9306122B4EA6BA0612A7
:104120002B4EDABA06122B4E29BB06122B4E85BC3B
:1041300006122B4E008005122B4E3E8105122B4E8F
:104140007A8105122B4E3F8305122B4E698305128F
:104150002B4EEF8505122B4E2F8605122B4EC58751
:1041600005122B4E5A8805122B4EB88805122B4E7D
:104170003E8905122B4E768905122B4EB889051201
:104180002B4E258B05122B4EA98C05122B4EE38E40
:1041900005122B4E118F05122B4E3D8F05122B4E03
:1041A000468F05122B4E9C8F05122B4E2C9005121C
:1041B0002B4E339305122B4EB59305122B4EFBCE8F
:1041C00006122B4E11CF06122B4E1BCF06122B4E72
:1041D00077CF06122B4E92FB03122B4EABFB031232
:1041E0002B4E50FC03122B4E90FC03122B4EA9FCBD
:1041F00003122B4EDCFC03122B4E29FD03122B4E17
:104200005DFD03122B4E9FFD03122B4E78FF031210
:104210002B4EE3FF03122B4EB1C706122B4E06C8DE
:1042200006122B4E60C806122B4EDBC806122B4E10
:104230004DC906122B4E8BC906122B4ECCC9061245
:104240002B4EEAF701122B4EF0F701122B4E37F8E6
:1042500001122B4E43FA01122B4E73FA01122B4E10
:10426000DDFA01122B4E98FB01122B4EDBFB0112E3
:104270002B4E0CFC01122B4E96FC01122B4EADFC6A
:1042800001122B4EBAFC01122B4EC4FC01122B4E14
:1042900064FE01122B4E56FF01122B4EB4FF011289
:1042A0002B4E45DB05122B4E5BDB05122B4E0DDC36
:1042B00005122B4E37DD05122B4E2CDE05122B4E30
:1042C000C3DE05122B4EFEDE05122B4E70DF0512EB
:1042D0002B4ECEDF05122B4EDEDF05122B4E05E0F6
:1042E00005122B4E57E005122B4EC3E105122B4E43
:1042F000C8E105122B4EEAE105122B4E6BD10612D6
:104300002B4E99D106122B4ECED106122B4ED0D168
:1043100006122B4ED2D106122B4EE3D106122B4E93
:10432000E5D106122B4EE8D106122B4E52FE051295
:104330002B4EC0FE05122B4EE2FE05122B4E1AFF2D
:1043400005122B4E50FF05122B4EEFAC06122B4ED2
:1043500031AD06122B4E54AD06122B4E87AF06120E
:104360002B4EA1AF06122B4ECCAF06122B4E4AD2CB
:1043700006122B4EBFE305122B4E9DE405122B4E69
:1043800083E505122B4E94E505122B4EA5E505128B
:104390002B4EF1E505122B4EE2E705122B4E37E9C5
:1043A00005122B4E67E905122B4E2BEA05122B4EF8
:1043B00089EA05122B4EFFDA02122B4E5ADB02124B
:1043C0002B4EFADB02122B4E77DD02122B4E63DEF0
:1043D00002122B4E20DF02122B4E37DF02122B4E21
:1043E00086DF02122B4EFADF02122B4E55E002122C
:1043F0002B4E68E002122B4ECCE002122B4E3BE11A
:1044000002122B4E53E102122B4E02E402122B4EEB
:1044100007E502122B4E62E502122B4EB6E50212A0
:104420002B4E6AE802122B4EBAE802122B4E3BE9E1
:1044300002122B4E7DE902122B4E57EA02122B4E2E
:1044400090EA02122B4EAFEA02122B4EFAEA021247
:104450002B4E1AEB02122B4ED5EB02122B4EBCEC5C
:1044600002122B4EC7EC02122B4E15ED02122B4EF0
:104470006AED02122B4EB6ED02122B4E11EF021214
:104480002B4E44EF02122B4EDCF102122B4E0FF298
:1044900002122B4E23F302122B4E52F302122B4E1A
:1044A000CAF302122B4EA5F402122B4EE7F40212AD
:1044B0002B4E5BF502122B4E75F602122B4EC2F6F6
:1044C00002122B4ECCF602122B4ECFF602122B4EBE
:1044D000D9F602122B4EF5F602122B4E6DF7021290
:1044E0002B4EA6F702122B4EC2F702122B4EEEF7FE
:1044F00002122B4E15F802122B4E39F802122B4ED7
:10450000B2F802122B4E25F902122B4E68F9021254
:104510002B4E72F902122B4EA1F902122B4EB7F953
:1045200002122B4ED3F902122B4E02FA02122B4E1C
:1045300022FA02122B4E6BFA02122B4EA6FA02122C
:104540002B4EB2FB02122B4E15FD02122B4E34FDE8
:1045500002122B4E4BFD02122B4E5DFD02122B4E12
:10456000F1CA06122B4E02CB06122B4E8BCB061233
:104570002B4E008006122B4E3E8006122B4ED7800B
:1045800006122B4EE28106122B4E2A8406122B4E67
:10459000A78406122B4E05EB05122B4E54EB051289
:1045A0002B4E12ED05122B4EE6EE05122B4E24EF8C
:1045B00005122B4E05F005122B4E0FF105122B4E56
:1045C00031F105122B4E8DF105122B4E0EF2051214
:1045D0002B4E6B5100122B4E8D5100122B4EFC5264
:1045E00000122B4E455300122B4EB65300122B4E89
:1045F000395400122B4EB05400122B4EF7540012B7
:104600002B4E6E5500122B4E125600122B4E875613
:1046100000122B4EC45600122B4E0C5B00122B4E78
:104620002F5D00122B4E685D00122B4EA75D00120D
:104630002B4EA36000122B4E336100122B4EE7620B
:1046400000122B4E216400122B4E416500122B4E9E
:10465000B26500122B4E936600122B4E16670012A5
:104660002B4E2A6700122B4EF96700122B4E306931
:1046700000122B4E5F6B00122B4E6E6D00122B4EF4
:104680005A6E00122B4EF17000122B4EC6710012A2
:104690002B4E057300122B4E357600122B4E4576AD
:1046A00000122B4E7B7700122B4E147800122B4EEB
:1046B000457900122B4EB37900122B4EEC7A001282
:1046C0002B4E277B00122B4ED07B00122B4E00D896
:1046D00004122B4EA2D804122B4E0ED904122B4ECC
:1046E00028D904122B4EAAD904122B4EE4D9041255
:1046F0002B4EE6DA04122B4E28DB04122B4E9ADBEB
:1047000004122B4EEADB04122B4E49DC04122B4E12
:10471000F5DC04122B4EDFDF04122B4EA6E0041250
:104720002B4E0CE104122B4EB4E204122B4E4DE33F
:1047300004122B4EE6E304122B4E49E404122B4ED6
:10474000BFE404122B4EC0E504122B4EB1E6041256
:104750002B4EECE604122B4E03E704122B4EE1E73E
:1047600004122B4E1FE804122B4EA7E804122B4E06
:10477000F4E904122B4EB8EB04122B4EF6EC0412A3
:104780002B4E29EE04122B4E3DEF04122B4ED4EF8C
:1047900004122B4E43F004122B4E50F104122B4EF8
:1047A000ACDA03122B4E15DB03122B4E5DDB03122A
:1047B0002B4EA1DB03122B4E14DC03122B4E6EDCAE
:1047C00003122B4EA9DC03122B4E43DD03122B4E9A
:1047D0009DDD03122B4E09DF03122B4E82DF0312E5
:1047E0002B4EACDF03122B4EC0E003122B4ED4E154
:1047F00003122B4EFCE103122B4EFAE203122B4E56
:104800000BE303122B4E23E303122B4E29E4031276
:104810002B4E4CE403122B4E1BE503122B4E45E5A9
:1048200003122B4E5CE503122B4E82E503122B4E36
:10483000C1E503122B4EE1E503122B4E08E60312ED
:104840002B4E20E603122B4EFAE603122B4E54E7B2
:1048500003122B4EC4E803122B4E42E903122B4ED7
:1048600066E903122B4E7DE903122B4E51EA031227
:104870002B4EEAEA03122B4E10EB03122B4E60EC88
:1048800003122B4E7FEC03122B4EFEEC03122B4E29
:1048900035ED03122B4E73ED03122B4E09EE03126E
:1048A0002B4E7EEE03122B4E62EF03122B4E40F185
:1048B00003122B4E15F203122B4E61F203122B4EF4
:1048C00092F303122B4E02F503122B4E61F60312E4
:1048D0002B4E6FF603122B4E6BF703122B4E12F872
:1048E00003122B4E58F803122B4E6DF803122B4E69
:1048F0007CF903122B4E95FA03122B4EF1FA031298
:104900002B4E53A506122B4E0EA706122B4ED6A7E2
:1049100006122B4E2BA806122B4EB1A806122B4EB8
:104920004A9906122B4E689906122B4EAC99061224
:104930002B4ED29906122B4EF99906122B4E119A34
:1049400006122B4E299A06122B4E419A06122B4E16
:10495000E79A06122B4E299B06122B4E3E9B0612FF
:104960002B4E459C06122B4E609C06122B4E699CCA
:1049700006122B4E729C06122B4E7B9C06122B4E5F
:10498000859C06122B4E029D06122B4E8094061219
:104990002B4EC29806122B4EDE9806122B4EE39831
:1049A00006122B4E71BF06122B4E807C00122B4E2E
:1049B000967C00122B4E177E00122B4E417E001269
:1049C0002B4E877E00122B4E907F00122B4ED7C3AA
:1049D00006122B4EB8D206122B4EBF7F00122B4E62
:1049E000369E02122B4E189E02122B4E009D021272
:1049F0002B4EDB9C02122B4EEB9B02122B4E779B15
:104A000002122B4EE09A02122B4E6E9A02122B4E7D
:104A10005D9A02122B4E389A02122B4E54990212B2
:104A20002B4E709802122B4E869502122B4E4394F9
:104A300002122B4EAA9102122B4E659102122B4E9E
:104A40000B9102122B4E6C9002122B4E17900212F9
:104A50002B4E448F02122B4E7E8E02122B4E428E14
:104A600002122B4ED58D02122B4ECD8D02122B4EE3
:104A7000428D02122B4ED28C02122B4E47A50212EF
:104A80002B4E238C02122B4EC8A402122B4E8DA348
:104A900002122B4E7DA302122B4E51A202122B4E5C
:104AA0006FA002122B4E66A002122B4E59A00212CA
:104AB0002B4E5C9F02122B4E188C02122B4E098C2F
:104AC00002122B4EE88B02122B4EB48B02122B4E8D
:104AD000D49E02122B4E888B02122B4E5A8A02123F
:104AE0002B4E4E8802122B4E1F8802122B4EFED0E8
:104AF00006122B4E038802122B4EC59E02122B4E1D
:104B0000AD8702122B4E748702122B4EEC860212D6
:104B10002B4EA08602122B4E598602122B4E8C85EC
:104B200002122B4E108502122B4E688402122B4E5D
:104B3000C18302122B4E638302122B4E3883021262
:104B40002B4EE98202122B4EAB8202122B4E89822F
:104B500002122B4E668202122B4E4D8202122B4EF7
:104B6000058202122B4E008002122B4E4F81021240
:104B70002B4EC38002122B4E578002122B4ED9C1EE
:104B80000600000080FB8F0001007E1987000100F5
:104B90007D19350004002E1A25000200321A260065
:104BA0000200341A27000200361A28000100401AB9
:104BB00029000100411A84000400421A8600010005
:104BC000461A2A000100471A2B000100481A2C003F
:104BD00001004C1A2D0008005F192E0001004D1A2B
:104BE0002F0001004E1A300001004F1A3100010061
:104BF000501A3200010067193300010068193400AF
:104C00000100511A36000100691938000100521ADA
:104C1000390001004B1A83000200661A630001008C
:104C20007A1964000100491A650001004A1A6D00F2
:104C300001007B1971000800571966000100651A10
:104C400043000100561A44000200571A45000100B3
:104C5000591A460002005A1A470008007219480003
:104C600001005C1A4B0001005D1A04000100681A83
:104C7000A10001006A1A37000100691A88000100CA
:104C80007F193C0001006A193D000100531A4900D8
:104C900002005E1A670001007C194D000200601AD4
:104CA0004E000100621A4F000200631A3E0001002C
:104CB0007119510001006B1952000100541A530080
:104CC0000100551A540001006C190000000000009A
:104CD000000136360101000102010001030100015B
:104CE0000401060605020000070100340801000F58
:104CF000090401010D0100FF0E0800001702000069
:104D0000190100FF1A0100011B0100FE1C0100082F
:104D10001D0200001F01000120010001210200000E
:104D20002301000F240200002601000127010008D2
:104D3000280200FF2A0100072B0102402C0100007D
:104D40002D0100012E0100012F0100FF30010B1D7C
:104D5000310800003A0100083B01000F3C0100014E
:104D60003D0100FF3E040000420400004604000034
:104D70004A0400004E0400005204000056040000E3
:104D80005A0400000103710301030103010301033D
:104D900001032203020301031003000300030003C5
:104DA000000300030003000342030003240306037F
:104DB0000003000304031203250323032503230335
:104DC000040304030003000300034403000300037F
:104DD000230300036503210035038103000305035A
:104DE00000030003000300032503230303047104ED
:104DF00002046004110470040204020401040204A9
:104E00001004610400041404630473047204620453
:104E10004304000413040604000400040404120400
:104E200000040004000400045104640000040004B1
:104E300000044404000400040004000465040004A9
:104E400035048104640005040004830400040300A5
:104E50007100300160001100700031022003500425
:104E600080001000610000001400630073007200F5
:104E70006200430000001300060000000000040070
:104E800012000000000000000000040004003700D1
:104E900037003C02440000000000000000006500F4
:104EA00000003500810000000500000083000000C4
:104EB0000101710101010101110101013101010132
:104EC00001018001100161013B00140063017301C5
:104ED0007201620143010001130106013D01350029
:104EE000040112010001000100010001040104019C
:104EF000330133013C01440132013600000100015D
:104F00006501000135008101000105018201830175
:104F100000010302710230016002110270020102FD
:104F2000020202028002100261023A0041006302A2
:104F3000730272026202430200021302380000028E
:104F40000002040212020002000200020002040237
:104F50000402370037003C0244020002390000021C
:104F6000000265020002350281020002050282028F
:104F70008302000236000100060000000F0000005E
:104F80000000000000000000000003FFFF0000041C
:104F900003FFFF0000FFFF0FF4010005C40403201E
:104FA000000100000B000000000000000003010FE2
:104FB00000000000000000000000000000000000F1
:104FC00000000000000000000000000000000000E1
:104FD000000000000D4713006B461F0071461F8044
:104FE000774601000D470200F3450300F945040030
:104FF000FF45050005460600114630002F463100EA
:10500000294632003B4633004146350047463400CE
:105010004D463600534611005F46140065461500A4
:105020002346FFFF00000A00000002000000040009
:1050300000000800000010000000200000004000F8
:1050400000008000000000010000000200000004D9
:1050500000000008000000100000002000000040D8
:105060000000011B33065133084B330B693310E545
:105070002F0A7B33022133053F330727330C0333D9
:105080000D0F3364434AFF000007ECFDFDFDECDC2F
:10509000DCCCBCACAC9C9C8C7C7C6C6C5C5C5C4C60
:1050A0004C3C3C2C2C1C1C03EAF5E5D5D5C5B5A51C
:1050B0009595858575756565555545453535252520
:1050C00015150500160F00000B150B020002220F2C
:1050D0003300000E5A6967426565416C6C69616E08
:1050E0006365303901030507090B0D0F0002040643
:1050F000080A0C0D00034A49434E181A2505020000
:10510000011916181616182303000C0E020B040BB7
:105110000A0708000F303016181920231A1C1E30F9
:1051200000393D3F373C3C362C442D3030171819A0
:1051300021301B1D1F30020402010101010902E898
:1051400003000000BE040A000000007F00E8030E18
:10515000000C0A030305090008000CFF1E1E2805A9
:10516000080304040910150401080CC082C08390D0
:10517000184EE4F0A3F07CED7D047A677B171242B1
:1051800039124A13123033124A0D02672374F31294
:10519000259374F5122C1789098A088B0A8C0BE960
:1051A000705F74026508703F7908124545750C0000
:1051B000780C122BA5E50BF50C780C122BA5E50A43
:1051C000F50C780C122BA590178312299D901A4686
:1051D000E0F97C727D19901A6612717B1249E974AC
:1051E00007122B630252C47401650860030252C99E
:1051F00079081245457B00AA0AA90A124A9102526F
:10520000C47401650960097402650960030252C92A
:10521000EA60067403650870477902124545901AE2
:1052200046E0F9901783122E3E1249FBE9F99017D8
:1052300092E0A2E34010E9700D901852E004F0648F
:105240000470031252EA74036508707A901853E0F0
:10525000F8740128F0E8C39405406B1252EA8066A6
:1052600074016508706374016509790A702E12452E
:10527000457401122E6DE4F07402122E6D7403F069
:1052800004122E6DE4F0A3F0A3F0A3F07408122E24
:105290006DE4F0AA18AB1912332D804412454590E5
:1052A0001A3C12299D7A007B20901787E0F9124161
:1052B000EB7404122B63901A46E0F9901783122EB8
:1052C0003E124AAFE9F9E9601790811612299D7ADA
:1052D000017B00901787E0F91241EB7404122B63F5
:1052E000740B122B637F0502285F901783E4F0A3F1
:1052F00074F8F0A374FFF0A37407F02274F612257B
:1053000093E9FFEAFE7AD1F91240A18A828B83E504
:10531000824583702A7A027B00124083EA4B700E2A
:105320007A107B00901787E0F91240C580148A82BA
:105330008B8374D1F0EFA3F0EEF912408F8003EF6E
:10534000A3F002556974F712259389089006FB12A1
:10535000668E901A29E0F47003A3E0F4702D900893
:105360000EE0901A29F0A3E4F080208E828F83A3B0
:1053700012641B600F8E828F83A3A3126415FAA997
:10538000081245DB8E828F8312542CEE4F70DC9016
:105390001A29E0F47003A3E0F4600A901A29E0FAF5
:1053A000A9081245DB12343B901751125D6212348A
:1053B000357F0102285F74F0122593890B8C0C75E0
:1053C00008007509007410122E6D1254A074121288
:1053D0002E6D12542C803CA80A125490F50EA3E0B6
:1053E000F50FA809125483F583E0650E7004A3E05D
:1053F000650F7014125423EE28F582EF39F583E51A
:105400000EF0A3E50FF00508050AE50AC3950C4068
:10541000C60509E509C3950B5005750A0080EBA97F
:10542000088011A808E828F8E433F922126E54E83D
:10543000FEE9FF227F0802285F74F4122593890B8E
:105440008C0A750800740C122E6D1254A08002058F
:1054500008E508C3950B502775090080020509E58A
:1054600009C3950A50E9A80812548312668CA8094A
:105470001254906E7003A3E06F70E279018002799C
:10548000008028E828F8E433F9EA28F582EB39228D
:10549000E828F8E433F9EC28F582ED39F583E022C9
:1054A000126E54E8FCE9FD22122B637F0402285F90
:1054B00074F61225931255537003A3E06D7017759F
:1054C00008907509177808122BA1EEFA1247137489
:1054D00002122B63801F7508027509807808122B51
:1054E000A18C088D097808122BA112553E1247375E
:1054F0007404122B63807274F61225931255537044
:1055000003A3E06D701775089D7509177808122BB5
:10551000A1EEFA1247197402122B63801F7508035B
:105520007509807808122BA18C088D097808122B38
:10553000A112553E1247377404122B63802B12556B
:105540004C3FF583E0FD7C801267CB22EE240EF504
:1055500082E422EAFEEBFF1267E0FCE439FD9017DB
:1055600051E06C227402122B637F0202285F74F6F2
:1055700012259374FE122C17EAFEEBFF8518828524
:105580001983E4F0A3125D12126711FCA3E0FBEC97
:10559000FA88828983A3A3E0F97509007508006081
:1055A0000574FF697005750882803D901751E06AA7
:1055B0007003A3E06B701AAA18AB19123A0BE9F545
:1055C00009851882851983126B52701C75088380B7
:1055D0001790197DE06004640170057508818008EA
:1055E000E064027003750880851882851983126B48
:1055F0003BA908EEFAEFFB12471FE5096011851879
:1056000082851983126B52600612717512412B024A
:10561000556474F2122593EAFEEBFF7508007509D4
:10562000001267DCF50AE439F50B12343BEA650A2F
:105630007003EB650B7012123A1DE914F50879013D
:105640007A1A7B18123A238003750980126B41F590
:105650000C780C122BA5750C1A750D18780C122BE2
:10566000A17808122BA5780A122BA1E509F5087874
:1056700008122BA51265A7126B44F97A057B8012DC
:105680004725740702791174F61225938909750864
:105690000080278A828B83E0FE127AD4EE28E439D8
:1056A000FF125423EC28F582ED39F583EEF0A3EFD9
:1056B000F0EA2402FA50010B0508E508C3950940F9
:1056C000D202556974E812259374FB122C178A16BE
:1056D0008B17851882851983E4F07403122E6DE40C
:1056E000F0A3F004122E6DE4F0A3F0125AD5351792
:1056F000125CE4F50B850A82F583127BC0FEE43967
:10570000FF850A82850B83A3A3E0FA850A82850BB5
:1057100083A3A3A3E0F9EAF508E439F509E50A242F
:1057200004F50A5002050BEEFAEFFB1234D7E964D8
:10573000016016EEFAEFFB1234D7E9703D90175175
:10574000E06E7003A3E06F6031126921122BA5E4B3
:10575000F508F5097808122BA17808122BA59017E7
:10576000511229A57508807808122BA5125ABC126F
:1057700047257407122B63025AB2125AEF88106041
:105780002B12775F1241257403122E6D125D627425
:1057900003122E6D126B5260137403122E6D125A87
:1057A000E7A91012460B8A0A8B0B800375100012B2
:1057B0005AEF880F602712775F1241257401122E6D
:1057C0006D125D627401122E6D126B52600F7401C6
:1057D000122E6D125AE7A90F12460B8003750F00A7
:1057E0009006FB805C850A82850B83A3A3A3A3A3F9
:1057F000A3A3A3E4F0A3F0AA0AAB0B85148285153A
:1058000083A3A3E0F8126415F912408F85128285F4
:105810001383E0C0E0851882851983E0F8741A28A4
:10582000F582E43418F583D0E0126B5604F0E511EC
:10583000A2E05007AA12AB1312412B8514828515E2
:1058400083E0F514A3E0F515E51445157003025A3D
:105850001F851482851583A312641B60DE85148264
:10586000851583A3A3A3A3A3A3A3A3E0A2E050CB86
:10587000851482851583A3A3A3A3126B528514827A
:10588000851583A3A3601F12641CFA790185148215
:10589000851583A3A3A3A3125ADA1227798A128B40
:1058A000137511018010125ADAA3A3A3E0F512A315
:1058B000E0F513751100E5124513700302582E85AB
:1058C0001282851383A3E065087004A3E065096074
:1058D0000F74FF6508700474FF6509600302582E99
:1058E000851282851383A3A3A3A3A3A3A31229A52F
:1058F000851282851383A3A3A3A3A3A3E0FC74054D
:10590000122E6D12717BA9101245ED7402122B63D9
:10591000E9703C851282851383A3A3A3A3A3A3A349
:10592000A3A3A31229A5851282851383A3A3A3A3EE
:10593000A3A3A3A3A3E0FC7403122E6D12717BA991
:105940000F1245ED7402122B63E9700302582EE525
:105950000F2510C333240AFA7B001240838A0A8B76
:105960000BEA450B700302580C8A828B8374D212A7
:105970006D618A828B83A3A3E8F0A3E9127A3AA32C
:10598000E510127BC8E50FF0E510603CEA2405FA4B
:10599000E4350BFBE50A240AF8E4350BF98A828B1F
:1059A000831262E17403122E6D125AFF122B9DAC0A
:1059B00010EC2CFCE433FD8A828B8312717B124045
:1059C0005F7403122B63800D8A828B83A3A3A3A32E
:1059D000A3E4F0A3F0E50F70030257E5A8101254FA
:1059E00025E50A28F8E50B39F9E8240AFAE439FB39
:1059F000850A82850B83A3A3A3A3A3A3A3A3125DFC
:105A0000627401122E6D125AFF122B9DAC0FEC2CFA
:105A1000FCE433FD12405F7403122B630257F785D9
:105A20001882851983E06027126921122BA5750859
:105A30001A7509187808122BA17403122E6D1269B9
:105A40002A122BA59017511229A57508008029EE5E
:105A5000FAEFFB1234D7E9702F126921122BA575CA
:105A6000081A7509187808122BA175080078081211
:105A70002BA59017511229A57808122BA5125ABCF4
:105A80001247257407122B637403122E6D126B528A
:105A9000600B7403122E6D12717B12412B74011274
:105AA0002E6D126B52600B7401122E6D12717B12EF
:105AB000412B7405122B637F1002285FE516240228
:105AC000FCE43517FDE51612653B3517F583E0F963
