:020000040000FA
:10000000021F3F022003FFFFFFFFFF02200BFFFF45
:10001000FFFFFF022013FFFFFFFFFF02201BFFFF78
:10002000FFFFFF022023FFFFFFFFFF02202BFFFF48
:10003000FFFFFF022033FFFFFFFFFF02203BFFFF18
:10004000FFFFFF022043FFFFFFFFFF02204BFFFFE8
:10005000FFFFFF022053FFFFFFFFFF02205BFFFFB8
:10006000FFFFFF022063FFFFFFFFFF02206BFFFF88
:10007000FFFFFF022073FFFFFFFFFF02207BFFFF58
:10008000FFFFFF022083FFFFFFFFFF02208BFFFF28
:10009000FFFF70DFFFFF040000000002000000C847
:1000A000030002030369A5020269A532730000017F
:1000B00000000000000400FFFFFFFFFFFFFFFF0440
:1000C00003090424035400650078006100730020D4
:1000D0000049006E0073007400720075006D0065C9
:1000E000006E007400730024035400490020004394
:1000F000004300320035003300310020005500532A
:10010000004200200043004400430000035F005F02
:100110000030005800000000000000000000000057
:1001200000000000000000000000000000000000CF
:100130000000000000303132333435363738394171
:100140004243444546331C881C881C881C881C90EC
:100150001C74F8121BCD900391E06015900302749B
:10016000FEF0900304744DF0A37405F07A011207B9
:100170001C7F01021D6C74F8121BCD74FF121EB699
:100180007E00801F851882851983E064FE700690CA
:1001900003877401F0851882851983E0F890038441
:1001A000E068F07901AA18AB191210E9E9700302AE
:1001B0000287851882851983E064EF70027E07E06C
:1001C000C0E0900387E0FA900385E0F8EA28F8E4BD
:1001D0003400F9740228F582740339F583D0E0F015
:1001E000900387E0609E14600E14602B14603B1433
:1001F0006051146067809E900384E4F085188285C6
:100200001983E0900386F0C394809003874003E451
:1002100080827402020194851882851983E090031C
:1002200082F09003877403020194851882851983F4
:10023000E0900383F0900386E060199003877404D4
:10024000020194900385E004F0F8900386E0686072
:10025000030201959003877405020194900385E4DD
:10026000F0900387F0900384E0F885188285198365
:10027000E0686003020195900382E0644D60030230
:1002800001951203BF8002EEF97401121E370201BC
:100290007174F7121BCD74FB121EB6EAFEEBFF75EC
:1002A00008047509007808121ED07402121F377AEC
:1002B000907B0079041218EB7402121E3712070E9D
:1002C000121F88E0687003A3E069701285188285A8
:1002D0001983E0F47003A3E0F4600302039A74044A
:1002E000121F2F1207708A088B09A808A909740227
:1002F000121F88E8F0A3E9F07404121F88E0600878
:1003000079011201510203B3851882851983E068CF
:100310007003A3E0697076851882851983E0F47014
:1003200003A3E0F470197402121F887410F0A37410
:1003300020F08518828519837410F0A37420F0755D
:1003400008017509007808121ED07402121F377A4E
:10035000247B0812196F7402121E3775080478087E
:10036000121ED07402121F377A907B007904121883
:10037000EB7402121E3712070E121F88E06870031A
:10038000A3E069700479028006790480027903127F
:1003900001518E828F83741E80058E828F83E4F0DC
:1003A00012070E121F88E0687003A3E069700479D9
:1003B00001800279007405121E377F02021D6C74E1
:1003C000ED121BCD74F8121EB6900307E0FD9003EA
:1003D00006E0FCFAEDF8E4C8F9EA28FEE93408FF83
:1003E000751001750B00750A068E088F0974027866
:1003F00008121F1CC39508F8E49509F9740228F542
:100400000E740339F50F8E088F0974097808121FCE
:100410004EE508F511EE2410F508E43FF509EEF578
:100420000CEF5401F50D900383E014605914700330
:100430000204FB14700302057614601024FE70039E
:100440000206311470030206E10206F1750A03790F
:100450004E1213BD9003071207047402F0A37440F8
:100460001207027408120702F0A3F07418C394076D
:1004700004F510AA10A90B12071CA90A7408121E71
:10048000377F0C021D6C750A04794E1213BDEE45C0
:100490000D7005A9111219D5C3EE9425EF940850DB
:1004A0003CC3E5089424E50994084031E50E249600
:1004B000F8E50F3420F988828983E0701BA3AA82B3
:1004C000AB83E070139003887401F0888289837491
:1004D000A5F08A828B838004900388E4F07508106D
:1004E0007509007808121ED07C087D03EEFAEFFB38
:1004F00012196F7402121E37020473750A05E51192
:10050000C394794006750B0102047375124075138C
:10051000007812121ED07C097D037402780C121F21
:100520001CAA0CAB0DA9111218EB7402121E379005
:100530000307E0A3F0900306E0A3F0751043C3EEB9
:100540009425EF94084003020473C3E5089424E55E
:100550000994085003020473900388E070030204B6
:1005600073E50E2497F8E50F3420F988828983E437
:10057000F0A3F00204737508047509007808121ED0
:10058000D07402121F377A907B0079041218EB7432
:1005900002121E377402121F88E0F8A3E0F98518D2
:1005A00082851983E0687003A3E069851882851944
:1005B00083700BE0F47003A3E0F470578009E0F45B
:1005C0007003A3E0F4700D8518828519837410F010
:1005D000A37420F012070E121F88E8F0A3E9F0754B
:1005E00008017808121ED07402121F377A247B0883
:1005F00012196F7402121E377508047808121ED083
:100600007402121F377A907B0079041218EB74027F
:10061000121E3712070E121F88E0687003A3E069EC
:100620007006750A01020473750A02750B0702044D
:10063000739003D6E0600764026003020473EDFF69
:100640007A01790012071CE060030206D5800312CC
:10065000118512116CE970F77404121F881206F6E6
:100660007404121F887808121F6C85080C85090D08
:10067000850A0E850B0F9003C2780C121EF67404C7
:10068000121F88780C121F5DE5084509450A450BC5
:1006900070CE8EC2E5C554E04FF5C57404121F88B4
:1006A0001206F67404121F887808121F6C85080C55
:1006B00085090D850A0E850B0F9003C2780C121E5A
:1006C000F67404121F88780C121F5DE50845094571
:1006D0000A450B70CE7A01790012071C79080204D2
:1006E0007CEC900391F07003020473750A09020414
:1006F00073790602047CE4F0A37426F0A3E4F0A36B
:10070000F022F0A3E4F0A3F0A3F0A3F0A322851855
:1007100082851983E0F8A3E0F974022274F8121BB1
:10072000CDEAFE900305E0D2E7F0E9A3F0EE9003F6
:1007300003F08E0874042AFE7C028004E062080C38
:10074000ECFA3395E0FB74022AF58274033BF583DF
:10075000EEF8C3EA98EB9400A2D265D03340DDE511
:1007600008F074012AF97A027B0312112702017141
:1007700074E9121BCD7582007583FE121E198A164C
:100780008B177514007515008A828B83E4F0900333
:10079000D6E07006D2AAD2AF800464027005790058
:1007A000120151750C00750D20750E00750F00902B
:1007B00003D6E0600464027015121185120176E917
:1007C000F874096860030208AC7900120151E06412
:1007D000027007A29240030208877508007509029B
:1007E0007808121ED07402121F37850C08850D0977
:1007F000AA08E5095407FB850E0A850F0B740B78D0
:1008000008121E87A9081218EB7402121E377E0008
:100810007F009003CAC0828E10EFF5113395E0F58A
:1008200012F513850C08850D09850E0A850F0B78C6
:10083000087910121F099003C67808121EF67583F6
:1008400003D0827808121DFA501D851882851983FD
:10085000E5822EF582E5833FF583E0F9AA14AB1516
:100860001208DB8A148B150EEE70010FC3EF940291
:1008700040A09003CE780C121EF69003D2780C1292
:100880001DFA40030207AF7900AA14AB151208DB6A
:1008900079001208DB8B159003D6E07004C2AFC25A
:1008A000AAEA451570277AA57BA58021E870030286
:1008B00007CE74066870030207CE740768700302DF
:1008C00007CE8516828517837401F080BA75820081
:1008D000758302121E197F10021D6CC008C0097CAE
:1008E000088A088B09740F7808121F4EE508F8EA89
:1008F00025E0FAEB33FBE9A2E7500474014AFAE879
:10090000A2E0500874216AFA74106BFBE9C333F952
:100910001CEC70CDD009D00822C082C083120F33E6
:1009200060030209F0A3E0F8A3E060030209F0A36A
:10093000E064027002A3E060030209F09003B8E0F3
:100940002480600914604F14605C0209F0E86003C1
:100950000209F09003B2E060047801800278009010
:1009600003C0E8F0A3E4F09003B1E0600A9003C094
:10097000E04402F0A3E4F09003A6E0640460149065
:1009800003B374C0F0A37403F0A3E4F0A3740212E1
:100990000F95F0020E6E90039FE064047052900376
:1009A000C0E4F0A380D0E8547FFA90039FE0640491
:1009B000703EEAC394065038749F2AF582E43403EB
:1009C000F583E854806018A3A3A3A3A3A3A3E064C2
:1009D0000370047801800278009003C0E88094E5F9
:1009E00082240CF58250020583E0640370E980E301
:1009F0009003A67404809B74F8121BCDE9FE90034B
:100A0000BE120F366003020AD990039FE0640460AF
:100A10000B9003BC120F366003020AD99003B8E0B2
:100A2000541F6009146030146020020AD99003BA80
:100A3000E064017022EE9003B1F060047905800259
:100A400079067A00121BCB020ADF9003BCE0547FC8
:100A5000FA9003BAE060057900020AE1EAC394065D
:100A60005077EA90620EF0749F2AF8E43403F9900C
:100A700003BCE05480602EEE600474108002744069
:100A8000906211F0EE60047B0380027B00EB8882B1
:100A90008983A3A3A3A3A3A3A3F0EE600479088092
:100AA0002F7907802BEE60047B2080027B80EB9007
:100AB0006214F0EE60047B0380027B00E8240CF5F6
:100AC00082E439F583EBF0EE6004790A800279095B
:100AD000121BCB90620EE480059003A67404F0799B
:100AE000017F01021D6C79001209F7E97003121BE6
:100AF000BA2279011209F7E97003121BC922C082D8
:100B0000C0839003BC120F367015A3120F36700FFE
:100B10009003BA120CD95480FAE9FBEA4B600790B3
:100B200003A67404801AE8906200F090039F6009A5
:100B3000E06402700C74038007E0640370037402C5
:100B4000F0020E6E74F5121BCD9003BAE0FAA3E02A
:100B50001460081460101460398057121754120C76
:100B6000B6A37B8080417900121776120CB67B8089
:100B7000E92402F9E43AFA121E6DFC1919E0FAA30D
:100B8000E92403F9E43AFA121E6DF9ECA3F0A3E9A3
:100B9000801CEAF91217E49003B3EAF0A3EBF0A388
:100BA000E4120CC5A37B00121E6DA3F0A3E4F002B7
:100BB0000C709003B3E4F0A3F0A3F0750B00900465
:100BC0007DE0FAA3E0FB020C4E850B08750900746A
:100BD000037808121F1CEA2508F8EB3509F9900381
:100BE000BA120CCFE493C0E0EFFCD0E06C705DA3D0
:100BF000E4936E70579003BC120CCFA3A3E493C090
:100C0000E0EFFCD0E06C704488828983A3A3A3E466
:100C1000936E703888828983A3A3A3A3E493F50815
:100C2000740193F5099003B3E508F0A3E509F0A377
:100C30007480F088828983A3A3A3A3A3A3E493F879
:100C4000740193F99003B6E8F0A3E9F0050B900462
:100C50007F120CD9C39AF508E99BF509740378084B
:100C6000121F4EC3E50B9508E495095003020BC90A
:100C70009003B3E0FCA3E0FDA3E0FEEC4D4E900337
:100C8000A6700474048029E0640460259003BEE02B
:100C9000FAA3E0FB9003B6E0F8A3E0F9C3EA98EB0F
:100CA0009950089003B6EAF0A3EBF09003A6740104
:100CB000F07F04021D6C9003B3EAF0A3EBF0A37481
:100CC00080120CC522F09003B3E0F9A3E0FA22E011
:100CD000FEA3E0FF8882898322E0F8A3E0F9E822FE
:100CE00074EE121BCDEA2404F8E43BF98808890964
:100CF0008882F583E4936025900481120CD9FEE983
:100D0000FF8007EE2404FE50010F8E828F83E49350
:100D1000F8740193F9EA687002EB6970E6750B00EC
:100D2000803F9062147490F07410120E3570037549
:100D30000A408E828F83A3A3A3E493550E6006E539
:100D40000AD2E0F50AE50A906215F0EA906213F023
:100D5000EC240CF582E43DF583E4F090620EF0059E
:100D60000B850882850983E493F8E50BC39840035B
:100D7000020E307A0079051216E78A0C8B0DEA45CF
:100D80000D60DCEA2402F8E4350DF9881089118839
:100D900082F583E493540FF51290620EF0750A0009
:100DA0008A828B83A3A3A3A3E4932407F50EA3E471
:100DB000933400F50F7403780E121F4EAA0EA8127A
:100DC000749F28F8E43403F9E8FCE9FD750E017519
:100DD0000F00E512780E121F1CE50EF50EE50C242F
:100DE00003F8E4350DF9851082851183E493A2E7B9
:100DF0004003020D229062117448F07408120E35FF
:100E00007003750A408E828F83A3A3E493550E600E
:100E100006E50AD2E0F50AE50A906212F0EA90626D
:100E200010F08C828D83A3A3A3A3A3A3A3020D59C7
:100E30007F0B021D6CF088828983E4935403640164
:100E400022C082C083120F337010A3120F36700AB3
:100E5000A3E064017002A3E060079003A67404801D
:100E60000C9003B374A0F0A37403120F8BF0D08323
:100E7000D0822274F3121BCD90039FE064026014B1
:100E80009003BC120F36700CA3120F36700690033D
:100E9000BBE060099003A67404F0020F2E7A00797B
:100EA00001121BCB9003BAE0606F7A00F91217763B
:100EB0008A0A8B0BEA450B605890039F7404F090EC
:100EC00003BAE09003A0F0750800850A82850B83C1
:100ED000A3A3A3A3E493F8E508C398504AA8087411
:100EE000A128F8E43403F9E8FEE9FF8E828F83E459
:100EF000F07A0079041216E78A828B83A3A3A3E415
:100F000093F88E828F83E06870E7120CE00508800A
:100F1000B99003A67404F0800E9003A0F090039F94
:100F20007403F0F91216677A007902121BCB7F0660
:100F3000021D6C9003BAE0F8A3E0F9E8492274F6C8
:100F4000121BCD90039FE0640470199003B8E06415
:100F5000817011120F33700C9003BEE064017002B7
:100F6000A3E060079003A67404801A9003BCE024F9
:100F7000A1F508A3E03403F5099003B3E508F0A355
:100F8000E509120F8BF07F03021D6CF0A3E4F0A3C0
:100F900004120F9522F0A3E4F09003A6042274F744
:100FA000121BCD90039FE0640470649003B8E0646A
:100FB00001705C9003BE120F3670549003BAE0FBD0
:100FC0009003BCE0FA9003A0E0F91217AE8A088BF8
:100FD00009AE08AF09EE4F60369003BCE0FA790322
:100FE000121BCB9003BAE0C0E09003BCE024A1F850
:100FF000A3E03403F988828983D0E0F0EEFAEFFBB6
:10100000120CE09003BCE0FA7904121BCB8006902E
:1010100003A67404F07F02021D6CC082C0838003AB
:10102000121A31A2E840F9A823E854046009782391
:10103000E654FBF612140EA823E854106009782336
:10104000E654EFF612142FA823E8A2E05005782307
:1010500054FCF690620EE0FA7404F0906214E0A280
:10106000E05039A9A8C2AF906216E0F8A3E0E8FB0F
:10107000E9A2E792AF8017906228E0C0E090039366
:10108000E0F812111CD0E0F0900393E004F0EBFDC7
:1010900074FF2DFB0470E0906214E4F0EA90620E9D
:1010A000F0E0FC7404F0906211E0A2E040319003A3
:1010B00095E0F8900394E06860257A4090039412DC
:1010C000115FE0906228F0900394E004F008900330
:1010D00095E06860041AEA70E39062117401F0EC24
:1010E00090620EF0D083D0822274F8121BCDE9FEFC
:1010F0007900801212111CE08A828B83F090039297
:10110000E00412115409900392E0F8900393E06810
:101110006005E9C39E40DD7F01021D6C748528F5E2
:1011200082E43404F58322C082C083E9FC80188AFB
:10113000828B83E0C0E090039512115FD0E0121122
:1011400054900395E004F0ECF874FF28FC0470DF81
:1011500079018090F08A828B83A3AA82AB8322E0FC
:10116000F8748528F582E43405F58322C082C083B3
:10117000900395E0F8900394E068600479018002A0
:1011800079000210E402101A74FB121EB67E009061
:1011900006857808121F6C794A1213BD9006857473
:1011A00001F0A3F0A37469F0A374A5F09003D778BD
:1011B00008121EE170047E0180159003DB7808128E
:1011C0001EE16008E59D541864107003022000EED3
:1011D000F9121334C280D291EEA2E050030212E75A
:1011E000AA18AB19120291E970030212E7C29185A5
:1011F0001882851983E0C3943C500EE0F8743CC318
:1012000098F50895E0F5098006750800750900E471
:10121000F50AF50B9003DF780C121F6C7808790C37
:10122000121AD1790612015112101A120176E9F838
:101230007409687007790612015180277407686085
:1012400016A2935012E8600874066860030212E761
:10125000A292400F0212E7750800750900750A0096
:10126000750B0085080C85090D850A0E850B0F90FE
:1012700003C27808121EF6E50C450D450E450F70A9
:10128000A7D2807907120151800312101A12116C33
:10129000E970F77E007F007401121F88E4F0A374E8
:1012A00026F0A3E4F0A3F07401121F887808121F3F
:1012B0006C85080C85090D850A0E850B0F9003C2FD
:1012C000780C121EF67401121F88780C121F5DE54F
:1012D000084509450A450B70CEA29250FCA29350D6
:1012E000F81213B8022000D280D291794E1213BDA9
:1012F000750800750900750A00750B007905120163
:101300005112101A120176E9F874096860EE74013E
:101310006870EE12101A9003E37808121EF690031C
:10132000E77808121DFA50EB1213B802200074057A
:10133000121E372274F8121BCDE9FE53BEFBE59D49
:10134000A2E650FA0078F8790100E824FF18E934A1
:10135000FFF9E84970F375C6807480659E70FA43A2
:10136000BE049062707408F01213ADEE700853F46E
:10137000FEC29043FE017403F5D575D4899003969F
:10138000E4F0A374C2F0A37401F0A3E4F0A3F0A30B
:10139000F0A37408F01213D37AFF7BFF1219EC53F9
:1013A000F4FED29043FE011213AD021117D2804316
:1013B000FD01C29143FE0222D280C29122781075B3
:1013C000B60FE5B4A2E750FAE5BBC39940F118E8BF
:1013D00070ED2274F7121BCD7A0079011217768A0C
:1013E000828B83A3A3A3A3A3A3A3E493A2E6900366
:1013F000B2500474018001E4F09003B1E4F0906213
:101400000F7403F0E0A2E750FB7F02021D6CC08264
:10141000C08390039F7402F0A3E4F09003A6F079D8
:1014200003121667752100752200D083D0822274C2
:10143000F6121BCD90620EE0FEE4F0906211E0FF28
:10144000A2E4501D7480F09003A67407F0E52145D6
:10145000226009852182852283121F979003A6E4CA
:10146000F0EFA2E2500B906211E4F09003A6F0803E
:10147000679003A6E0F87402687046906216E0FF79
:101480009003B3121DACEFF97A207B6212168174BF
:1014900003121E37EFF89003B612164512164F2F9F
:1014A000121657A3E0F8A3E0F9E8496004744080FD
:1014B000027448906211F0E849600302163B02167C
:1014C000177406687009852182852283121F979000
:1014D00003A6E060030215C2EFA2E0400302163B40
:1014E0007508B8750903750A007808121ECC7908CA
:1014F0007A207B621216817403121E3775210075E3
:1015000022009003B8E054E0601D24E0700302154F
:101510009D24E0607224C0604824E070030215A896
:1015200024E0606E0215B3A3E014602624FE601D63
:1015300024FE600A24FC601F24FE60208075120ACD
:10154000FE9003A6E06404707278608070120AF264
:1015500080EF120AE680EA120E7380E5120F9E8079
:10156000E0A3E0600E24FA600F24FE601024FE6009
:1015700011804012091980C9120B4480C4120E4117
:1015800080BF120F3E80BA7521B675221B121BB6A2
:1015900080AF7521B875221B121BB880A47521512C
:1015A00075221B121B51809975218175221B121BFC
:1015B00081808E9003A67404F0808E7840E890625B
:1015C00011F09003A6E0F874016870617F02900347
:1015D000B6E0F8A3E0F9C3E89420E994005007E8E6
:1015E000F5087F0A80037508209003B3121DACA98B
:1015F000087A207B621216AC7403121E37AC0812F4
:10160000164F2C121657A808A3121645EF90621118
:10161000F0E8C394205024E5214522600985218209
:10162000852283121F979003A6E4F0800E7405684C
:101630007009852182852283121F97EE90620EF039
:101640007F03021D6CC3E098F0A3E09400F02290A9
:1016500003B31216D9E922F9E43AFA9003B3E9F098
:10166000A3EAF0A3EBF022C082C083E99003A7783D
:1016700005F0A3D8FC9003AC7805F0A3D8FC0214C5
:101680002A74F8121BCDEAFCEBFDE9F87408121F6E
:10169000881216D460118C828D83E0121EA0E9247A
:1016A0000109E43AFAD8EF7F01021D6C74F8121BAD
:1016B000CDEAFCEBFDE9F87408121F881216D4601D
:1016C00011121E6D8C828D83F0E9240109E43AFA2F
:1016D000D8EF80D31216D9E822E0F9A3E0FAA3E00C
:1016E000FB22D083D08222C082C083E9FCEAFD7A4B
:1016F000007B00800312173290039DE0F8A3E0F90D
:1017000090047BE0687003A3E069602490039EE08E
:10171000F5838882A3E493F8EC68700D90039DE054
:10172000FAA3E0FB1217328007ED6870C8ED60C5C0
:1017300080B090039DE0F8A3E0F5838882E493F8FD
:1017400090039DE028F8A3E03400F990039DE8F0B1
:10175000A3E9F022C082C0831217657A00790112D2
:1017600016E70216E2900479E0F8A3E0F990039DF1
:10177000E8F0A3E9F02274F7121BCDE9FFEAFE12AC
:1017800017657A0079021216E7EA4B601CEF6010C9
:101790008A828B83A3A3A3A3A3E4936F70E480093D
:1017A000EEF874FF28FE0470D97F02021D6C74F5F8
:1017B000121BCDEAFF8B087A001217767A027904A1
:1017C0001216E7EA4B60188A828B83A3A3E4936F17
:1017D00070EA8A828B83A3A3A3E493650870DD7FFC
:1017E00004021D6C74F7121BCD74F0121EB6E97A58
:1017F000007B00600C146010146014146018021850
:10180000D47AF37B030218D47AF77B030218D47AD4
:101810001B7B040218D490043FE060030218D090B0
:1018200003EB7408121F377408121DD9750808F5E8
:10183000097808121ED07402121F377AE87B0779E4
:101840007F1218EB7402121E377808121ED0740A29
:10185000121F377402121F2F121C907402121E37AF
:101860008B09EA450970197509007808121ED07CA9
:101870000C7D787402121F2F121D267402121E375F
:101880007C287D00EDF8851882851983E58228F58E
:1018900082E43583F583E0FFECF8743F28F8E43404
:1018A00004F9EF1218DC88828983F0EFC41218DC87
:1018B000C0E0E824FEF582E934FFF583D0E0F00DC6
:1018C00074FC2CFCEDC3940840BA90043F742AF0D9
:1018D0007A3F7B047410121E370217A9540FFA7452
:1018E000692AF582E43404F583E02274F6121BCDF4
:1018F000890A740F550AF508750900740B780812E7
:101900001F1CEA2400F8EB3480F9E82400E93509CB
:10191000F985C709A2AFE433F508C2AFE50AC4549C
:101920000FFAE5C754F84AF5C7740A121F88E0FA9F
:10193000A3E0FB801C88828983E08C828D83F08801
:10194000828983A3A882A9838C828D83A3AC82AD74
:1019500083EAFEEBFFEE24FF1AEF34FFFBEE4F703D
:10196000D48509C7E508A2E092AF7F03021D6C741D
:10197000F7121BCDED900389F0ECA3F0A37462F095
:10198000A37473F0A3E0541FF07409121F88E0F5EC
:1019900008A3E0F509E508333354FC90038EF07496
:1019A000067808121F4EE50890038DF090038F749F
:1019B00012F0A37442F075D1FE75D601EA906271FF
:1019C000F0EBA3F0906270E0D2E1F0E0A2E740FB20
:1019D0007F02021D6CC082C083E9C333906272F043
:1019E000906270E0D2E0F0D083D0822274F7121BB4
:1019F000CD7523007524007525008A268B27EA9073
:101A0000620BF08A088B0974047808121F4EE508EF
:101A1000906207F08A088B0974097808121F4EE556
:101A200008543E906209F0758B00C2E87F02021DE7
:101A30006C74F7121BCDE59DA2E650FA906206E0A9
:101A4000F9A2E25034AA26EA90620BF0F508852745
:101A50000974047808121F4EE508906207F08A089E
:101A600085270974097808121F4EE508543E9062D4
:101A700009F0906201E0D2E0F0E9782346F6906246
:101A800002E0F50875090074047808121F1C782319
:101A9000E50846F608E50946F6906204E0F50875A3
:101AA000090074097808121F1C7824E50946F6E934
:101AB000A2E050037525017406596003752500E501
:101AC0008BA2E55006758BDF752500121BCC021A20
:101AD00027080808EAC0E0EBC0E086F0E7A4FA189F
:101AE0000986F0E7A42AFA180986F0E7A42AFA186A
:101AF0000986F0E7A42AFA1986F0E7A4FBE5F02AA4
:101B0000FA190886F0E7A42BFBE5F03AFA190886E3
:101B1000F0E7A42BFBE5F03AFA18180986F0E7A4E1
:101B2000C5F02BFBE43AFA1908E7C5F0C6A426F67F
:101B3000E5F03BFBE43AFA1886F0E7A4F6E5F00896
:101B400026F6E43B08F6E43A08F6D0E0FBD0E0FAEB
:101B500022C082C0839003B9E0F8742268700890B4
:101B600003A6E0701A80117420689003A6700DE03F
:101B7000700D121BA89003A6740280027404F080FA
:101B800043C082C0839003B9E064219003A6701320
:101B9000E07013121BA8A37407F0A3E4F09003A64F
:101BA0000480027404F0801C9003B37496F0A37454
:101BB00003F0A3E4F02280028000C082C08390037F
:101BC000A67404F0D083D0822280EF22222518C58B
:101BD00082C0E0E51934FFC583C0E0E518C39582F3
:101BE00024F910AF08858319858218800885831928
:101BF000858218D2AFCEF0A3E520F0A37808E608DE
:101C0000F0A3DEFAEFF0A3E58124FBF8E608F0A3E9
:101C1000E608F0A30808E608F0A3E608F0A315819B
:101C20001581D0E0FED0E0F815811581E8C0E0EE26
:101C3000C0E02212010002020000205104A816098F
:101C40000001020301090243000201008019090496
:101C50000000010202010005240010010424020218
:101C60000524060001052401000107058203400048
:101C70004009040100020A00000007058402400038
:101C800000070504024000004E1C0000711C00000B
:101C900074F8121BCD7408121F88E0FEA3E08015B3
:101CA000A3AA82AB838C828D83A3AC82AD83EE2406
:101CB000FF1EEF34FFFFEE4F60198C828D83E0F83A
:101CC0008A828B83E0F9E86960D6E9C398FA95E0E7
:101CD000FB80047A007B007F01021D6CE47921788F
:101CE00007B800028004F709D8FCE490030278C129
:101CF00079018002F0A3D8FCD9FA7AC27B03900064
:101D00008E78C479018015E493A3AD82AE838A8274
:101D10008B83F0A3AA82AB838D828E83D8E9D9E727
:101D2000121188121F9274F7121BCDEAF8EBF974A6
:101D300009121F88E0FEA3E0FF80188C828D83E0EB
:101D400088828983F0A3A882A9838C828D83A3AC27
:101D500082AD838E088F09E50824FF1EE50934FF54
:101D6000FFE508450970D47F02021D6C8519838543
:101D70001882E0A3FEE0A3F5207808E0A3F608DFD0
:101D8000FAE0A3FFE0A3C0E0E0A3C0E0E0A3C0E06E
:101D9000E0A3C0E010AF088582188583198008850C
:101DA0008218858319D2AFD083D082227403800039
:101DB000CCC0E0EDC0E0E518C39CCCAD1950011DCE
:101DC00010AF068C188D1980068C188D19D2AF12A1
:101DD0001DD9D0E0FDD0E0FC22CAC0E0E0A3C5825E
:101DE000CCC582C583CDC583F0A3C582CCC582C5D1
:101DF00083CDC583DAE6D0E0CA22C008C3E096F5F9
:101E00000808A3E096420808A3E096420808A3E069
:101E10009645087001D3D00822C5822518C582C511
:101E200083351910AF07F5198582188007F51985D4
:101E30008218D2AFC5832200C0D0251810AF08F594
:101E400018500C05198008F51850020519D2AFD0AA
:101E5000D0222518F58210AF08F518400C1519800E
:101E600008F51840021519D2AF85198322BB01026B
:101E7000E722C082C08389828A83BB0003E080029C
:101E8000E493D083D082226016080808C6C313C624
:101E900018C613C618C613C618C613C6D5E0EA225C
:101EA000BB000EC082C0838A838982F0D083D08237
:101EB00022BB0101F722251810AF08F518400C15B8
:101EC000198008F51840021519D2AF227403800456
:101ED00074028000C0E0F404121E52D0E0121F7B96
:101EE00022E066701008A3E066700A08A3E066703E
:101EF0000408A3E06622E026F608A3E036F608A36D
:101F0000E036F608A3E036F622E627F60809E637BB
:101F1000F60809E637F60809E637F622700422606B
:101F20000D18C6C333C608C633C6D5E0F41822253B
:101F300018FAE43519FB222518FCE43519FD227541
:101F4000D00075813F751802751903021CDC600C06
:101F500008C6C313C618C613C6D5E0F422E6F008B7
:101F6000A3E6F008A3E6F008A3E6F022E0F608A353
:101F7000E0F608A3E0F608A3E0F622CAC0E0E6F027
:101F8000A308DAFAD0E0FA222518F582E43519F52B
:101F9000832200000080FBE473FFFFFFFFFFFFFFD1
:101FA000FFFFFFFFFFFFFFFFFFFFFFFFFFFFFFFF41
:101FB000FFFFFFFFFFFFFFFFFFFFFFFFFFFFFFFF31
:101FC000FFFFFFFFFFFFFFFFFFFFFFFFFFFFFFFF21
:101FD000FFFFFFFFFFFFFFFFFFFFFFFFFFFFFFFF11
:101FE000FFFFFFFFFFFFFFFFFFFFFFFFFFFFFFFF01
:0A1FF600850609433886000000004C
:020000040003F7
:01FFF000F020
:020000040000FA
:10200000022DC4022233FFFFFFFFFFFFFFFFFFFF90
:10201000FFFFFFFFFFFFFFFFFFFFFFFFFFFFFFFFD0
:10202000FFFFFFFFFFFFFFFFFFFFFF022B3AFFFF56
:10203000FFFFFF022255FFFFFFFFFFFFFFFFFFFF34
:10204000FFFFFFFFFFFFFFFFFFFFFFFFFFFFFFFFA0
:10205000FFFFFF02216DFFFFFFFFFFFFFFFFFFFFFD
:10206000FFFFFFFFFFFFFFFFFFFFFF022A54FFFFFD
:10207000FFFFFFFFFFFFFFFFFFFFFF0228A5FFFF9E
:10208000FFFFFF0221C401FFFFFFFFFFFFFFFFFF74
:1020900010201020010020FD000200000D32000081
:1020A0000000A7319132DD314F320000D131000004
:1020B0000000000000000000000000000000000020
:1020C00000000000000006FFFFFF00035F005F004C
:1020D0003000580000000000000000000000000078
:1020E00000000000000000000000000000000000F0
:1020F00000000000C5261A271A271A271A272227A8
:10210000010104006D18000000E8030000FFFF3C1F
:102110001903E803000064006400B801A0BB0D00CF
:10212000A0BB0D0002020008000005020704010523
:102130001E02051E020A0A01080803B80B02803EAF
:102140000102FEFFE8030A050001FFFF0A1401E097
:10215000010105030101FF0F10FEFF004F00000009
:1021600000724D00000000FF000000FF00C0E0749E
:10217000F2122666A2AFE433F508D2AFAFA7AEA144
:10218000EE5F54106006122F2B75A1EFEE5F54081E
:102190006008122F3175A1F78023EEA2E092F0EFD4
:1021A000A2E082F05017906198E0F890054EE0C3ED
:1021B00098A2D265D0335002E8F075A1FE751A00DE
:1021C000E5088066C0E074F2122666A2AFE433FE32
:1021D000D2AF9061A4E0F8759B00E5915854086077
:1021E000087591F7122F798023E5915854106008F3
:1021F0007591EF122F7F8014E591A2E092F0E8A292
:10220000E082F05007E0C2E0F01230D59061A3E028
:10221000F8E5E9585404600E1230AB75E9FB9061A3
:1022200093E0A2E640F2751A00EEA2E092AF7F01C1
:10223000022722C0E074F2122666A2AFE433FED277
:10224000AF9061A5E0F8E5BF585404600675BFFB88
:102250001230ED80D1C0E074F1122666E59DA2E651
:1022600050FA906206E0F9A2E25034AA2CEA906299
:102270000BF0F508852D0974047808122DE3E508A4
:10228000906207F08A08852D0974097808122DE3F9
:10229000E508543E906209F0906201E0D2E0F0E976
:1022A000782946F6906202E0F50875090074047812
:1022B00008122D147829E50846F608E50946F69037
:1022C0006204E0F50875090074097808122D147885
:1022D0002AE50946F6E9A2E05003752B0174065978
:1022E0006003752B00E58BA2E55006758BDF752B1F
:1022F0000012361B758B00C2E87F02022722C3E45E
:1023000098F8E499F912233F8026C3E49AFAE49BF3
:10231000FBE920E7E912233FE498F8E499F922C3A6
:10232000E498F8E499F912233FE498F8E499F9C3A2
:10233000E49AFAE49BFB22EB20E7CFE920E7E0B93F
:102340000010BB0008E88AF084F8AAF022E4FBC879
:10235000FA22EB70227B10C833C8C933C933500747
:10236000C39AC3DBF280069A50012ADBEAC833F431
:10237000C8C933F4C9FA2275F008E4C833C8C933B0
:10238000C933C99AC99B5004C92AC93BD5F0ECFB93
:10239000C833F4C8E4C9FA2274F512260074FA129C
:1023A0002C0B7508047509007808122B7A74041236
:1023B0002BEB7AF87B0779031249DD7402122B8D1F
:1023C0009081227808122DD47402122E617808129E
:1023D0002C6270497508027509007808122B7A740E
:1023E00002122BEB7AF67B0779031249DD74021295
:1023F0002B8D851882851983E0F47003A3E0F460C7
:102400001C851882851983E0F8A3E0F98882898306
:102410007402F0A3F0A37469F0A374A5F0C2AF75C1
:10242000D69F0200007406122B8D7F040228E80854
:102430000808EAC0E0EBC0E086F0E7A4FA180986D5
:10244000F0E7A42AFA180986F0E7A42AFA18098600
:10245000F0E7A42AFA1986F0E7A4FBE5F02AFA19B6
:102460000886F0E7A42BFBE5F03AFA190886F0E7B6
:10247000A42BFBE5F03AFA18180986F0E7A4C5F09A
:102480002BFBE43AFA1908E7C5F0C6A426F6E5F0F6
:102490003BFBE43AFA1886F0E7A4F6E5F00826F6E6
:1024A000E43B08F6E43A08F6D0E0FBD0E0FA22126A
:1024B0002E56B9000302250FE47921780DB80002E9
:1024C0008004F709D8FCE49004D1784B7918800295
:1024D000F0A3D8FCD9FA781A9020867A01BA0002C3
:1024E0008007E493A3F608DAF97A1B7B1C9020940A
:1024F00078DA79018015E493A3AD82AE838A828B6A
:1025000083F0A3AA82AB838D828E83D8E9D9E77545
:1025100082F27583BE7406122B1C75826F75834B15
:102520007400122B1CE4CFC0E0E4CEC0E0E4CDC0C8
:10253000E0E4CCC0E075F020E626F608E633F608C5
:10254000E633F608E633F6181818EC33FCED33FDE5
:10255000EE33FEEF33FFC3EC9709ED9709EE9709D1
:10256000EF97191919400FFFEC97FC09ED97FD093A
:10257000EE97FE191906D5F0BFECF709EDF709EE55
:10258000F709EFF7191919D0E0FCD0E0FDD0E0FE13
:10259000D0E0FF222518C582C0E0E51934FFC583CD
:1025A000C0E0E518C3958224F810AF08858319852B
:1025B00082188008858319858218D2AFCEF0A3E5F2
:1025C00020F0A37808E608F0A3DEFAEFF0A3E58197
:1025D00024FAF8E608F0A3E608F0A3E608F0A3085A
:1025E00008E608F0A3E608F0A315811581D0E0FE07
:1025F000D0E0F8158115811581E8C0E0EEC0E02239
:102600002518C582C0E0E51934FFC583C0E0E51890
:10261000C3958224F910AF08858319858218800834
:10262000858319858218D2AFCEF0A3E520F0A37878
:1026300008E608F0A3DEFAEFF0A3E58124FBF8E654
:1026400008F0A3E608F0A30808E608F0A3E608F0FF
:10265000A315811581D0E0FED0E0F815811581E841
:10266000C0E0EEC0E022C0D02518C582C0E0E51968
:1026700034FFC583C0E0E518C3958224F310AF088A
:102680008583198582188008858319858218D2AFC1
:10269000C8F0A3E9F0A3EAF0A3EBF0A37908E709F7
:1026A000F0A3D8FAECF0A3EDF0A3EEF0A3EFF0A3C3
:1026B000D0E0F0A3D0E0F0A3D0E0F0A3E520F0A3B9
:1026C000E5F0F0A32212010002020000205104A84C
:1026D00016090001020301090243000201008019EA
:1026E0000904000001020201000524001001042475
:1026F00002020524060001052401000107058203EA
:1027000040004009040100020A000000070584029D
:1027100040000007050402400000E02600000327F7
:102720000000851983851882E0C0E0A3E0F9A3E0EA
:10273000FAA3E0FBA37808E0F608A3DFFAE0FCA325
:10274000E0FDA3E0FEA3E0FFA3E0C0E0A3E0C0E063
:10275000A3E0F5D0A3E0F520A3E0A3F5F010AF08C7
:102760008583198582188008858319858218D2AFE0
:10277000D082D083D0E0F8D0E032E47375F0108ED0
:10278000218F22858226858325851882851983E0FD
:10279000CEA3E0CF852682852583EBC9EAC8EDCBA1
:1027A000ECCAC3E833C8E933C9EA33CAEB33CBC355
:1027B000EA9EF524EB9FF523B35004AB23AA24EC47
:1027C00033CCED33CDD5F0DAAE21AF2222D083D099
:1027D00082ECC0E0EDC0E0E493A3FCE493A3FDED44
:1027E0004C600D122928EC24FFFCED34FFFD80EF36
:1027F000E493A3FCE493A3FDED4C600D1229FFECE0
:1028000024FFFCED34FFFD80EFD0E0FDD0E0FCE4E0
:1028100093A3C0E0E493C0E022851983851882E089
:10282000A3FEE0A3F5207808E0A3F608DFFAE0A312
:10283000FFE0A3C0E0E0A3C0E0E0A3C0E0E0A3C0ED
:10284000E0E0A3C0E010AF088582188583198008F6
:10285000858218858319D2AFD083D082022B22D0F3
:1028600083D082E9C0E0E493A3C386F0C5F095F07D
:10287000F908E493A386F0C5F095F0700BE493A3F8
:10288000C3994005E9048002A3E475F002A42582FF
:10289000F582E5F03583F583D0E0F9E493A3C0E059
:1028A000E493C0E022C0E074F2122666A2AFE433E3
:1028B000FED2AFE58AA2E2500790050FE0D2E0F029
:1028C000E58AA2E3500790050FE0D2E1F0758A0097
:1028D000C2EB7A107B0090050BE0F91233BDEEA23B
:1028E000E092AF7F01022722851983851882E0A339
:1028F000FEE0A3F5207808E0A3F608DFFAE0A3FFE6
:10290000E0A3C0E0E0A3C0E0E0A3C0E0E0A3C0E03B
:1029100010AF088582188583198008858218858301
:1029200019D2AFD083D08222C0E0C3E4939608745A
:1029300001939618400FE49366700808740193663B
:102940001870007019A3A3C3E493960874019396BA
:1029500018A3A3400DD0E0D0E0D0E0022809A3A343
:10296000A3A3A3A3D0E022D083D082C5F0E493A395
:10297000C5F0C395F0F5F0E493A3C395F04005E5E9
:10298000F0048001E475F002A42582F582E5F035BB
:1029900083F583E493A3C0E0E493C0E02274048051
:1029A000087403800474028000CCC0E0EDC0E0E550
:1029B00018C39CCCAD1950011D10AF068C188D1991
:1029C00080068C188D19D2AF122A9ED0E0FDD0E07F
:1029D000FC2274028000CCC0E0EDC0E0E518C39C8E
:1029E000CCAD1950011D10AF068C188D1980068CC6
:1029F000188D19D2AF122A7CD0E0FDD0E0FC22C0A5
:102A0000E0C0F088F0E493667008087401936618DB
:102A10007000A8F0A3A3700BD0F0D0E0D0E0D0E01D
:102A2000022809A3A3D0F0D0E022D083D082CCC06A
:102A3000E0E493A36006122ABF1470FAE493A36043
:102A400006122C371470FAD0E0FCE493A3C0E0E443
:102A500093C0E022C0E074F2122666758900C2C5F8
:102A60009019E9E0700E7A007B109005E4E0F9120D
:102A700033BD8003123CC97F01022722CAC0E0E4B3
:102A800093A3C582CCC582C583CDC583F0A3C5827F
:102A9000CCC582C583CDC583DAE5D0E0CA22CAC0E1
:102AA000E0E0A3C582CCC582C583CDC583F0A3C5B4
:102AB00082CCC582C583CDC583DAE6D0E0CA22C008
:102AC000E0E493A3D39C5010E493A3C39C400AD0AA
:102AD000E0D0E0D0E0022A47A3A3A3D0E02270090F
:102AE000080808226016181818C6C333C608C6336B
:102AF000C608C633C608C633C6D5E0EA22C008C336
:102B0000E096F50808A3E096420808A3E09642087C
:102B100008A3E09645087001D3D00822C09FF59F16
:102B2000E473D09F22D083D082C09FE493C0E0742E
:102B30000193C0E0740293F59F22C0E0C0D0E8C0CA
:102B4000E0A8A8D2AFC2C7751A00E8A2E792AFD03A
:102B5000E0F8D0D0D0E0322518F58210AF08F51893
:102B6000400C15198008F51840021519D2AF8519C7
:102B700083227404800A7403800674028002740144
:102B8000C0E0F404122B57D0E0122E012200C0D076
:102B9000251810AF08F518500C05198008F51850C5
:102BA000020519D2AFD0D022BB0102E722C082C0F9
:102BB0008389828A83BB0003E08002E493D083D0C0
:102BC00082226016080808C6C313C618C613C618A2
:102BD000C613C618C613C6D5E0EA222518F8E43590
:102BE00019F9222518FAE43519FB222518FCE435D9
:102BF00019FD22C3E0C696F608A3E0C696F608A320
:102C0000E0C696F608A3E0C696F622251810AF088F
:102C1000F518400C15198008F51840021519D2AFA7
:102C200022BB000EC082C0838A838982F0D083D009
:102C30008222BB0101F722C0E0E493A36C7009D0AB
:102C4000E0D0E0D0E0022A47A3A3D0E022E76670FC
:102C5000100809E766700A0809E76670040809E7C2
:102C60006622E066701008A3E066700A08A3E066BA
:102C7000700408A3E06622C3E09608A3E09608A3C8
:102C8000E09608A3E096A2D265D03322C3E697F679
:102C90000809E697F60809E697F60809E697F62286
:102CA000C3E493960874019396087402939608748B
:102CB00003939622C3E096F008A3E096F008A3E001
:102CC00096F008A3E096F022E026F008A3E036F0A4
:102CD00008A3E036F008A3E036F022E647F608093C
:102CE000E647F60809E647F60809E647F622E6272A
:102CF000F60809E637F60809E637F60809E637F672
:102D000022E056F608A3E056F608A3E056F608A31C
:102D1000E056F622700422600D18C6C333C608C6FA
:102D200033C6D5E0F41822E056F008A3E056F008C8
:102D3000A3E056F008A3E056F022E493F6087401ED
:102D400093F608740293F608740393F622E026F6CD
:102D500008A3E036F608A3E036F608A3E036F6222C
:102D6000E657F60809E657F60809E657F60809E6B1
:102D700057F622E4C396F608E496F608E496F608B9
:102D8000E496F622C3E09608A3E09608A3E096082E
:102D9000A3E09622C6F4C608C6F4C608C6F4C60860
:102DA000C6F4C622600D08C6A2E713C618C613C62D
:102DB000D5E0F322C3E7960809E7960809E79608E5
:102DC00009E7962275D00075813F7518D1751904F1
:102DD000000224AFE0F608A3E0F608A3E0F608A39B
:102DE000E0F622600C08C6C313C618C613C6D5E0A9
:102DF000F422E6F008A3E6F008A3E6F008A3E6F064
:102E000022CAC0E0E6F0A308DAFAD0E0FA22E0F83D
:102E1000A3E0F9A3E0FAA3E0FB22E0FCA3E0FDA31A
:102E2000E0FEA3E0FF22EAF0A3EBF0A3ECF0A3EDB9
:102E3000F022E0FAA3E0FBA3E0FCA3E0FD22ECF02B
:102E4000A3EDF0A3EEF0A3EFF022E8F0A3E9F0A3E6
:102E5000EAF0A3EBF022E5C754F84401F5C7790185
:102E6000222518F582E43519F58322122B25E5BCBD
:102E700006122B251DBD06122B256BBE06122B2517
:102E8000EFBE06122B251CB306122B25C6B3061265
:102E90002B25FFB306122B2546B406122B2509B5A8
:102EA00006122B2531B506122B2557B506122B25F8
:102EB0006BB506122B2580B506122B2589B5061297
:102EC0002B255FFA03122B258BFA03122B2533FDDA
:102ED00003122B258AFD03122B25C6FD03122B2579
:102EE000DAFD03122B25F3FD03122B25E4FE03125A
:102EF0002B25C0FF03122B25D4FF03122B25ECC377
:102F000006122B2510C406122B2529C406122B25C8
:102F100067C406122B2597C406122B25C4C40612BB
:102F20002B25CEC406122B2534C506122B2537C5FA
:102F300006122B2541C506122B254EC506122B2540
:102F4000CAB506122B25EAB506122B2529B606129C
:102F50002B2547B606122B2562B606122B25C8B6BE
:102F600006122B25D4B606122B2531B706122B25B7
:102F700055B706122B2516B806122B2523B80612B4
:102F80002B2534B806122B251BD206122B2533D243
:102F900006122B255FD206122B25918A06122B25AD
:102FA000EB8B06122B25F98B06122B250C8C0612A7
:102FB0002B25218C06122B25368C06122B25498CAD
:102FC00006122B25C58C06122B252A8D06122B25C1
:102FD000B28D06122B252A8E06122B25038F061280
:102FE0002B25138F06122B25228F06122B25E4D0BA
:102FF00006122B2508D106122B2530D106122B25BF
:1030000058D106122B2581FD02122B25A8FD021294
:103010002B25C7FD02122B252BFE02122B2552B0A9
:1030200006122B256BB006122B2577B006122B2526
:103030008BB006122B25A9B006122B25B3B00612B1
:103040002B25BDB006122B25D0B006122B255DB165
:1030500006122B25CCB106122B25FBB106122B250F
:1030600049B206122B2598B206122B25B3B20612CE
:103070002B25BDB206122B25CEB206122B2511B37D
:1030800006122B259FFF04122B25EAFF04122B2585
:1030900056D505122B2582D505122B259FD5051255
:1030A0002B25B2D505122B25CDD505122B2527D6DC
:1030B00005122B2555D605122B255BDA05122B257B
:1030C000ACDB05122B25DEDB05122B2540DC0512BF
:1030D0002B25BADD05122B25E2DD05122B25F7DDA8
:1030E00005122B2507DE05122B2547DE05122B25A1
:1030F00089DE05122B2599DE05122B25B3C6061293
:103100002B25CDC606122B25F5C606122B250EC77C
:1031100006122B2532C706122B2550C706122B2567
:1031200067C706122B2595C706122B25B0C70612B6
:103130002B25D7CE06122B251DCF06122B2549FC99
:1031400005122B2559FC05122B2560FD05122B2598
:1031500094FD05122B25B6FD05122B25D9FD051270
:103160002B25F7FD05122B2531FE05122B259AFE86
:1031700005122B25DCFE05122B2523FF05122B251E
:1031800050FF05122B2587FF05122B25649D061283
:103190002B25C69D06122B256D9E06122B25A49E5F
:1031A00006122B25C5A205122B2574A305122B256B
:1031B000A6A505122B257DA805122B250FAA051201
:1031C0002B2571AA05122B25F1AD05122B2539AF40
:1031D00005122B25E3C706122B252EC806122B2518
:1031E000288506122B25E78706122B2584880612D0
:1031F0002B25B08806122B25DE8806122B25138975
:1032000006122B253B8906122B259B8906122B259E
:103210009AF404122B259FF804122B2596FA041217
:103220002B25C4FB04122B25A4FC04122B2559FECC
:1032300004122B2525FF04122B2579FF04122B25C0
:103240006AB806122B2574B806122B2595B80612FB
:103250002B25289405122B253E9905122B25A39A80
:1032600005122B257F9C05122B25039D05122B256E
:10327000A29D05122B259B9E05122B25CD9F051285
:103280002B25E5A005122B2500A205122B25E9BA56
:1032900004122B2521BB04122B25CFC504122B258C
:1032A000CCC604122B251EC804122B257BC9041280
:1032B0002B2554CA04122B2522CB04122B2509CC12
:1032C00004122B25F8CC04122B25A0CD04122B259B
:1032D000D0CD04122B2582CF04122B25F8CF041257
:1032E0002B2511D004122B2572D104122B2530D29C
:1032F00004122B25CFD204122B2578D304122B25B0
:10330000E6D304122B2584D404122B2507D50412EE
:103310002B2525D504122B253CD604122B250AD7A4
:1033200004122B25BBD704122B257EC206122B2597
:10333000A8C206122B25BCC306122B25BFC306123A
:103340002B257DD106122B25BFD106122B2501D2AC
:1033500006122B2511D206122B25BBF505122B25A3
:10336000F9F505122B2562F605122B2581F60512BB
:103370002B259AF605122B254CF705122B2555F710
:1033800005122B25A6F705122B25DCF705122B2598
:10339000F3F705122B255FF805122B25EFF8051220
:1033A0002B2525F905122B2569F905122B25CAF9BC
:1033B00005122B25FCF905122B256FFA05122B257A
:1033C000C3FA05122B2500FB05122B2537FB05122E
:1033D0002B2549FB05122B255BFB05122B2593FBA7
:1033E00005122B25DFFB05122B251DFC05122B25B5
:1033F000538F06122B25939006122B25B69006129A
:103400002B25C79006122B25DF9206122B25FF9243
:1034100006122B25AABA06122B25DEBA06122B2578
:1034200026BB06122B2582BC06122B250080051216
:103430002B253E8105122B257A8105122B254983E8
:1034400005122B25738305122B250A8605122B25C1
:103450004A8605122B25DF8705122B257488051255
:103460002B25D28805122B25658905122B259F89CE
:1034700005122B25E18905122B25548B05122B25CE
:10348000D88C05122B25FD8E05122B252B8F0512AE
:103490002B25578F05122B25608F05122B25B68FF4
:1034A00005122B25469005122B25499305122B2535
:1034B000CB9305122B2536D006122B254CD00612A5
:1034C0002B2556D006122B25B2D006122B25079994
:1034D00006122B251D9906122B25C29906122B25A3
:1034E000019A06122B251E9A06122B254F9A0612B8
:1034F0002B259C9A06122B25D09A06122B250B9B66
:1035000006122B25E79C06122B25529D06122B2511
:1035100005C906122B255AC906122B25B4C9061255
:103520002B2522CA06122B2594CA06122B25D2CA95
:1035300006122B2513CB06122B25EAF701122B2599
:10354000F0F701122B2537F801122B2543FA01124F
:103550002B2573FA01122B25DFFA01122B259CFB78
:1035600001122B25DDFB01122B250FFC01122B254F
:1035700099FC01122B25B0FC01122B25BDFC011278
:103580002B25C7FC01122B2567FE01122B2559FFA5
:1035900001122B25B7FF01122B25C9DE05122B25A1
:1035A000DFDE05122B2591DF05122B25BBE005126E
:1035B0002B25B0E105122B254DE205122B2588E2C3
:1035C00005122B25FAE205122B2558E305122B25AF
:1035D00068E305122B258FE305122B25E1E3051285
:1035E0002B254AE505122B254FE505122B2571E504
:1035F00005122B25A0D206122B25CED206122B2582
:1036000003D306122B2505D306122B2507D306124A
:103610002B2518D306122B251AD306122B251DD3C2
:1036200006122B25EFC006122B255DC106122B2595
:103630007FC106122B25B7C106122B25EDC106123C
:103640002B253AAD06122B2581AD06122B25A4ADF4
:1036500006122B25D7AF06122B25F1AF06122B250C
:103660001CB006122B2520D306122B2546E7051287
:103670002B251FE805122B2505E905122B2516E938
:1036800005122B2527E905122B2573E905122B2599
:1036900067EB05122B25C1EC05122B25F1EC051269
:1036A0002B25B5ED05122B2513EE05122B25FFDA80
:1036B00002122B255ADB02122B25FADB02122B25D4
:1036C00077DD02122B2563DE02122B2520DF02128A
:1036D0002B2537DF02122B2586DF02122B25FADF7E
:1036E00002122B2555E002122B2568E002122B2531
:1036F000CCE002122B253BE102122B2553E10212F2
:103700002B25FEE302122B250CE502122B2567E583
:1037100002122B25BBE502122B256FE802122B2586
:10372000BFE802122B2540E902122B2582E9021282
:103730002B255CEA02122B2595EA02122B25B4EA0E
:1037400002122B25FFEA02122B251FEB02122B255A
:10375000DAEB02122B25C1EC02122B25CCEC021263
:103760002B251AED02122B256FED02122B25BBED36
:1037700002122B251FEF02122B2552EF02122B25CE
:10378000D7F102122B250AF202122B2516F3021290
:103790002B2543F302122B25BBF302122B2596F4A3
:1037A00002122B25D8F402122B254CF502122B25E0
:1037B00066F602122B25B3F602122B25BDF6021275
:1037C0002B25C0F602122B25CAF602122B25E6F68F
:1037D00002122B255EF702122B2597F702122B25DA
:1037E000B3F702122B25DFF702122B2506F802127F
:1037F0002B252AF802122B25A3F802122B2516F9E5
:1038000002122B2559F902122B2563F902122B25DE
:1038100092F902122B25A8F902122B25C4F90212E3
:103820002B25F3F902122B2513FA02122B255CFA31
:1038300002122B2597FA02122B25A3FB02122B252D
:1038400006FD02122B2525FD02122B253CFD02123E
:103850002B254EFD02122B253ACC06122B254BCCE4
:1038600006122B25D4CC06122B25008006122B2500
:103870003E8006122B25D78006122B25E2810612E8
:103880002B252A8406122B25A78406122B258FEEC2
:1038900005122B25DEEE05122B259CF005122B259B
:1038A0006FF205122B25ADF205122B2583F30512BD
:1038B0002B258CF405122B25AEF405122B250AF5C9
:1038C00005122B258BF505122B255A5100122B259D
:1038D0007C5100122B25E65200122B252F5300128B
:1038E0002B25A15300122B251F5400122B25845485
:1038F00000122B25CB5400122B253A5500122B25F4
:10390000E05500122B25555600122B259A56001211
:103910002B25AE5A00122B25C75C00122B25055D06
:1039200000122B25445D00122B255E6000122B2512
:10393000E56000122B25856200122B25BC63001266
:103940002B25CC6400122B253D6500122B251A6611
:1039500000122B259E6600122B25B26600122B2525
:103960007A6700122B25A46800122B25D16A001259
:103970002B25E46C00122B25C06D00122B255170F5
:1039800000122B25267100122B25447200122B25C4
:10399000977500122B25A77500122B25277700128B
:1039A0002B25C47700122B25E37800122B2575797F
:1039B00000122B25CC7A00122B25137B00122B250D
:1039C000C27B00122B256ED804122B250ED90412AF
:1039D0002B257AD904122B2595D904122B2538DAF8
:1039E00004122B2580DA04122B25ACDB04122B25C4
:1039F000EBDB04122B2562DC04122B25B3DC041252
:103A00002B251ADD04122B25C6DD04122B25A9E077
:103A100004122B25C2E104122B2545E204122B25AA
:103A200008E404122B25ADE404122B2557E50412FB
:103A30002B25BCE504122B252BE604122B254AE787
:103A400004122B2543E804122B258DE804122B25A4
:103A5000A4E804122B2563E904122B25A2E9041221
:103A60002B251DEA04122B25A1EB04122B2539ED81
:103A700004122B25A7EE04122B2509F004122B2586
:103A80001BF104122B25AEF104122B251CF204129B
:103A90002B252EF304122B25ACDA03122B2515DB74
:103AA00003122B255DDB03122B25A1DB03122B2533
:103AB00014DC03122B256EDC03122B25A9DC031268
:103AC0002B2543DD03122B259DDD03122B2509DF5A
:103AD00003122B2582DF03122B25ACDF03122B25CB
:103AE000C0E003122B25D4E103122B25FCE10312C5
:103AF0002B25FAE203122B250BE303122B2523E3DC
:103B000003122B2529E403122B254CE403122B2549
:103B10001BE503122B2545E503122B255CE503125B
:103B20002B2582E503122B25C1E503122B25E1E5A8
:103B300003122B2508E603122B2520E603122B2562
:103B400003E703122B255DE703122B25C4E80312BC
:103B50002B2542E903122B2566E903122B257DE96B
:103B600003122B2551EA03122B25EAEA03122B2517
:103B700010EB03122B2560EC03122B257FEC0312B4
:103B80002B25FEEC03122B2535ED03122B2573EDAF
:103B900003122B2509EE03122B257EEE03122B2593
:103BA00062EF03122B2540F103122B2515F20312AD
:103BB0002B2561F203122B256CF303122B258AF4BB
:103BC00003122B25A8F503122B25B6F503122B257E
:103BD000B2F603122B2554F703122B259AF7031282
:103BE0002B25AFF703122B25C1F803122B2562F901
:103BF00003122B25BEF903122B2559A506122B25DE
:103C000014A706122B25DCA706122B2531A80612B5
:103C10002B25B7A806122B258ECF06122B2583A1A4
:103C200006122B25C7A106122B25EDA106122B2566
:103C300014A206122B252CA206122B2544A2061232
:103C40002B255CA206122B2506A306122B2548A3C2
:103C500006122B255DA306122B2564A406122B2524
:103C60007FA406122B2588A406122B2591A40612E8
:103C70002B259AA406122B25A4A406122B2521A5D8
:103C800006122B25F87F00122B257F9806122B2574
:103C90009B9806122B25A09806122B256EBF0612A4
:103CA0002B25817C00122B25977C00122B25187E5A
:103CB00000122B25427E00122B25887E00122B2518
:103CC000917F00122B2558C506122B258ED3061284
:103CD0002B25C07F00122B25008002122B25578038
:103CE00002122B25C38002122B254F8102122B2595
:103CF000058202122B254D8202122B2566820212AA
:103D00002B25898202122B25AB8202122B25E982F8
:103D100002122B25388302122B25638302122B25D6
:103D2000C18302122B25688402122B2510850212F2
:103D30002B258C8502122B25598602122B25A08655
:103D400002122B25EC8602122B25748702122B25DA
:103D5000AD8702122B25038802122B251F88021221
:103D60002B254E8802122B255A8A02122B25888B6E
:103D700002122B25B48B02122B25E88B02122B2565
:103D8000098C02122B25188C02122B25238C02126F
:103D90002B25D28C02122B25428D02122B25CD8D84
:103DA00002122B25D58D02122B25428E02122B25B5
:103DB0007E8E02122B25448F02122B2517900212A1
:103DC0002B256C9002122B250B9102122B2565914D
:103DD00002122B25AA9102122B25439402122B25A5
:103DE000869502122B25709802122B2554990212E7
:103DF0002B25389A02122B255D9A02122B256E9ADA
:103E000002122B25E09A02122B25779B02122B25FA
:103E1000EB9B02122B25DB9C02122B25009D02122C
:103E20002B25189E02122B25369E02122B25529E00
:103E300002122B25C59E02122B25D49E02122B2581
:103E40005C9F02122B2559A002122B2566A002129C
:103E50002B256FA002122B2551A202122B257DA328
:103E600002122B258DA302122B25C8A402122B258A
:103E700047A502122B2578A602122B25B4A6021202
:103E80002B258EA802122B254BAC02122B255FACE2
:103E900002122B2569AC02122B2573AC02122B25C2
:103EA0007DAC02122B2587AC02122B25A0AC02128E
:103EB0002B25AAAC02122B2521AD02122B252CADED
:103EC00002122B255BAD02122B2583AD02122B258E
:103ED0008EAD02122B25F3AD02122B25FDAD021281
:103EE0002B2508AE02122B252CAE02122B2550AE2C
:103EF00002122B25C2AE02122B250BAF02122B256C
:103F000027AF02122B2598AF02122B25E4AF021225
:103F10002B252DB002122B256BB002122B25ECB0F5
:103F200002122B2593B102122B2558B302122B2516
:103F3000BDB302122B25EBB402122B2511B50212D0
:103F40002B2559B602122B2593B902122B2591BBB2
:103F500002122B255CBD02122B25F5BD02122B256A
:103F6000F6BF02122B25ABC002122B25E4C00212B1
:103F70002B2554C102122B255EC102122B2587C3AB
:103F800002122B258AC402122B25C7C502122B252B
:103F90001EC602122B25C9C602122B2579C8021291
:103FA0002B25C6C902122B25E6C902122B253BCAB6
:103FB00002122B253CCB02122B2564CB02122B259F
:103FC000C3CB02122B25BBCC02122B2532CD021201
:103FD0002B2545CE02122B25B3CE02122B25B2CFB4
:103FE00002122B250CD202122B2535D202122B25C0
:103FF0009BD302122B251DD502122B2574D502123C
:104000002B2522D602122B25C7D602122B252AD702
:1040100002122B25E8D702122B257AD802122B2563
:10402000D9D802122B251BD902122B254CD90212EA
:104030002B25A3DA02122B25008003122B253280B8
:1040400003122B256B8003122B25348203122B25A0
:10405000788203122B254E8303122B25AD83031286
:104060002B25C38403122B250F8503122B259D8737
:1040700003122B25818A03122B25C88B03122B25B3
:10408000608C03122B256C8C03122B25B58C03122C
:104090002B25F78D03122B25ED8E03122B25178F61
:1040A00003122B256D8F03122B25C68F03122B2590
:1040B000399003122B256F9203122B25F1930312D3
:1040C0002B25DC9403122B25269603122B255E98B4
:1040D00003122B255B9B03122B256A9B03122B25B6
:1040E000FE9B03122B25A99C03122B25EC9C03128B
:1040F0002B25359D03122B25859D03122B25E99D2C
:1041000003122B255B9E03122B25779E03122B2572
:10411000A69E03122B25E59E03122B25E09F03127A
:104120002B258FA003122B250CA303122B253EA4B5
:1041300003122B2516A503122B2598A503122B2558
:10414000CDA903122B25FCA903122B2557AA031274
:104150002B258AAA03122B2502AB03122B2535AB84
:1041600003122B2596AB03122B25E6AB03122B254E
:10417000B3AC03122B256CAD03122B2530AE03120A
:104180002B25AAB003122B250CB203122B255DB3ED
:1041900003122B2581B403122B2584B403122B2583
:1041A000B3B403122B25ABB603122B256AB7031247
:1041B0002B2599B703122B25B7B803122B257FB9EE
:1041C00003122B2540BB03122B25B0BB03122B255A
:1041D000E2BB03122B2502BC03122B2571BC031278
:1041E0002B256ABD03122B258EBD03122B2501BE84
:1041F00003122B252AC003122B2589C003122B255D
:10420000DDC003122B250CC303122B25EFC30312B1
:104210002B2577C403122B255BC503122B25E5C57F
:1042200003122B25F9C503122B250DC603122B25CE
:1042300021C603122B2535C603122B2562C6031295
:104240002B2592C603122B254DC803122B2523C9FB
:1042500003122B25C7C903122B251CCA03122B25B9
:104260007FCA03122B25C8CA03122B25EFCA0312DB
:104270002B25B7CB03122B255DCC03122B25E3CDC9
:1042800003122B256ECE03122B25B5CE03122B2540
:1042900027CF03122B257CD003122B2525D1031207
:1042A0002B2559D103122B2571D103122B2514D2A2
:1042B00003122B2590D403122B2538D603122B255D
:1042C00056D603122B2574D603122B2540D7031282
:1042D0002B258EDA03122B25A78101122B25E981CC
:1042E00001122B25568701122B25A28701122B259F
:1042F000E88701122B25398901122B259E8901128D
:104300002B25E28901122B25488B01122B25A38E28
:1043100001122B25D68F01122B25659B01122B250F
:10432000F59B01122B25DF9E01122B2544A00112C3
:104330002B25A7A001122B25C3A101122B252DA3EC
:1043400001122B250CA401122B257AA601122B2574
:104350000CA801122B259DA801122B25BCA9011226
:104360002B2549AA01122B2553AA01122B257BAA22
:1043700001122B251EAB01122B2509AC01122B2596
:10438000D1AC01122B255EAD01122B2574AD0112AB
:104390002B2591AD01122B25BAAD01122B25E7ADCE
:1043A00001122B252BB001122B25FEB001122B255B
:1043B00042B101122B25C4B101122B2565B20112A5
:1043C0002B2597B201122B25DEB201122B2511B33A
:1043D00001122B2555B301122B25A4B301122B2555
:1043E000A9B301122B2505B401122B2549B40112E2
:1043F0002B2533B501122B2598B501122B25F6B5C7
:1044000001122B2575B601122B25EDB901122B25B2
:10441000F0BA01122B2586BC01122B25C9BF01124F
:104420002B256BC001122B25B4C201122B256FC3A3
:1044300001122B25AEC301122B2572C501122B25AB
:104440008FC501122B2598C501122B25A1C501127C
:104450002B25ACC501122B25CBC501122B25EFC78F
:1044600001122B254CC801122B2556C801122B25F1
:1044700060C801122B25C3C801122B251FC90112C8
:104480002B252CCA01122B258DCA01122B259ECB60
:1044900001122B25E7CB01122B25B1CC01122B25C4
:1044A000C8CD01122B258CCE01122B25D8CF01129D
:1044B0002B25DCD001122B25D5D101122B25EDD1D6
:1044C00001122B2524D201122B252ED201122B25CD
:1044D00038D201122B2543D201122B2561D20112B1
:1044E0002B25A9D201122B2507D301122B252ED360
:1044F00001122B2540D301122B25E9D301122B25C4
:1045000022D401122B2553D501122B25B0D501122F
:104510002B25A1D601122B25D7D601122B2547D743
:1045200001122B25C3D701122B2544D901122B25AB
:104530006BDA01122B252DDB01122B25FBDB01127F
:104540002B2580DC01122B252FDD01122B2517DEF8
:1045500001122B25B0DE01122B258CDF01122B2539
:10456000F4DF01122B25B3E001122B250FE101121C
:104570002B2573E101122B2539E201122B255CE278
:1045800001122B2516E301122B2538E301122B25EE
:1045900099E301122B25C9E501122B25C2E6011270
:1045A0002B256EE701122B258BE901122B25D4E96F
:1045B00001122B251FEA01122B257BEA01122B2564
:1045C000D9EA01122B25FDEA01122B2521EB01125C
:1045D0002B2556EB01122B257EEB01122B25C3EB6D
:1045E00001122B2521EC01122B257AEC01122B252F
:1045F00074ED01122B2520EF01122B2565EF01121E
:104600002B258EEF01122B2517F001122B258AF096
:1046100001122B2598F001122B25BCF001122B253D
:1046200012F101122B252DF101122B25E8F10112B7
:104630002B2514F201122B2557F201122B25BAF269
:1046400001122B25CAF401122B25F6F401122B2599
:10465000B1F501122B2595F601122B2529F7011230
:104660002B25D6CA05122B250ECB05122B252FCBB9
:1046700005122B2571CB05122B25D5CB05122B2529
:10468000DFCB05122B25EFCB05122B2526CC0512EF
:104690002B25CFCF05122B2597D105122B257BD3A8
:1046A00005122B251DD405122B25A7D405122B2569
:1046B000508004122B25F98004122B25D881041276
:1046C0002B25E48204122B25048304122B25268437
:1046D00004122B25D68504122B25438604122B2584
:1046E000148704122B251A8804122B259288041291
:1046F0002B25CD8804122B25268904122B256189B0
:1047000004122B25AA8904122B253E8A04122B257C
:10471000D48A04122B25A98B04122B257C8C04121D
:104720002B250A8D04122B25308D04122B255D8D2F
:1047300004122B258E8D04122B255B8E04122B2543
:104740006B8E04122B25BE8E04122B25CB8E0412E9
:104750002B25D88E04122B25E18E04122B25458F94
:1047600004122B25A38F04122B25EE8F04122B2568
:10477000099004122B25309004122B254D90041221
:104780002B25599004122B25EA9104122B25039214
:1047900004122B257F9204122B25929204122B25B2
:1047A000A29204122B25469304122B25B2940412D4
:1047B0002B25C59504122B25659604122B256F9683
:1047C00004122B25EE9604122B25FF9604122B259E
:1047D0003E9704122B256C9704122B25399804124E
:1047E0002B25909804122B25C99804122B251F996C
:1047F00004122B253D9904122B258B9904122B258D
:10480000569A04122B25A49A04122B25F19A04120D
:104810002B25749B04122B259E9B04122B25D49BC5
:1048200004122B25E39B04122B25429C04122B25FA
:10483000BA9C04122B25FB9C04122B254B9D0412C1
:104840002B25769D04122B25909D04122B25AA9DC5
:1048500004122B257F9E04122B25899E04122B25E2
:10486000C49E04122B25D49E04122B25DD9E041217
:104870002B252E9F04122B25429F04122B2564A06A
:1048800004122B2577A004122B258EA004122B25B1
:10489000A3A004122B2536A104122B25AAA10412D1
:1048A0002B254FA204122B255AA204122B25BDA39F
:1048B00004122B25D9A304122B2525A404122B2581
:1048C00093A404122B25C5A404122B25DFA40412E3
:1048D0002B253FA504122B25DEA504122B2529A686
:1048E00004122B257CA804122B2514A904122B25B5
:1048F0008BA904122B25E8AB04122B2500AC041263
:104900002B2503AC04122B250FAC04122B2523AC52
:1049100004122B252BAC04122B2562AC04122B2580
:1049200056AD04122B25E0AD04122B2562AE041205
:104930002B25E2AE04122B25B9AF04122B25DBAFD9
:1049400004122B2574B004122B25D1B004122B2590
:10495000D4B004122B2501B104122B2516B1041278
:104960002B2585B104122B25D1B204122B25E4B3DB
:1049700004122B256FB404122B2582B504122B25AB
:1049800049B604122B257AB604122B25A0B60412C0
:104990002B25A9B604122B25D8B604122B2588B7CF
:1049A00004122B2538B804122B25ABB804122B2582
:1049B0004EB904122B25C1B904122B2500BA0412DA
:1049C0002B2549BA04122B257EBA04122B258BCF36
:1049D00006122B2521CC06122B25B9CB06122B252E
:1049E00035CB06122B2501CE06122B254DCD0612F6
:1049F0002B2535CD06122B2525CD06122B25E8FFBC
:104A000003122B25EC7F00122B25BDCE06122B2581
:104A10001FCE06122B250ECE06122B25DBBC05124F
:104A20002B252ABC05122B2546BB05122B2599B92F
:104A300005122B2558B905122B252FB905122B2548
:104A4000DCB805122B2535B805122B259DB70512AC
:104A50002B257BB705122B2523B705122B25E9B68D
:104A600005122B2567B605122B2526AD06122B2520
:104A700006B605122B25CBAC06122B2566AC06120A
:104A80002B25A7AA06122B25D2A906122B2559A938
:104A900006122B254BA906122B252DD006122B25ED
:104AA0002AD006122B25C1B505122B25DCB4051220
:104AB0002B2500B405122B25A8B305122B2517D0E2
:104AC00006122B2518B305122B25D3B205122B2560
:104AD000B7B205122B255CB105122B255394061293
:104AE0002B251EB105122B25C7CF06122B25F8B09A
:104AF00005122B257CB005122B259FCA05122B25EC
:104B000054CA05122B25FBC905122B25CEC9051247
:104B10002B259DC905122B256DC905122B2545C9CD
:104B200005122B25E5C805122B25C7C805122B2514
:104B30008CC805122B250CC805122B252FC4051275
:104B40002B250DC205122B25C9BF05122B2543BFEE
:104B500005122B25C8BD05122B25F1BE05122B25EC
:104B60007CBE05122B2535BE05122B2565A106003E
:104B7000000080FB8F000100DD1987000100DC19B7
:104B800035000400991C250002009D1C260002002F
:104B90009F1C27000200A11C28000100AB1C29005B
:104BA0000100AC1C84000400AD1C86000100B11C97
:104BB0002A000100B21C2B000100B31C2C000100D4
:104BC000B71C2D000800BE192E000100B81C2F00D4
:104BD0000100B91C30000100BA1C31000100BB1CEF
:104BE00032000100C61933000100C719340001006A
:104BF000BC1C36000100C81938000100BD1C39007A
:104C00000100B61C83000200D11C63000100D91909
:104C100064000100B41C65000100B51C6D000100BA
:104C2000DA1971000800B61966000100D01C4300B3
:104C30000100C11C44000200C21C45000100C41C4C
:104C400046000200C51C47000800D11948000100B9
:104C5000C71C4B000100C81C04000100D31CA100AC
:104C60000100D61C37000100D51C88000100D41CAF
:104C70003C000100C9193D000100BE1C49000200B2
:104C8000C91C67000100DB194D000200CB1C4E005F
:104C90000100CD1C4F000200CE1C3E000100D019C7
:104CA00051000100CA1952000100BF1C530001004D
:104CB000C01C54000100CB190000000000000001DE
:104CC0003636010100010201000103010001040167
:104CD000060605020000070100340801000F090460
:104CE00001010D0100FF0E0800001702000019016C
:104CF00000FF1A0100011B0100FE1C0100081D023B
:104D000000001F0100012001000121020000230119
:104D1000000F2402000026010001270100082802DC
:104D200000FF2A0100072B0102402C0100002D0189
:104D300000012E0100012F0100FF30010B1D310881
:104D400000003A0100083B01000F3C0100013D0159
:104D500000FF3E04000042040000460400004A0434
:104D600000004E04000052040000560400005A04E3
:104D700000000103710301030103010301030103A7
:104D800022030203010310030003000300030003D6
:104D9000000300030003420300032403060300038F
:104DA0000003040312032503230325032303040341
:104DB0000403000300030003440300030003230370
:104DC000000365032100350381030003050300038D
:104DD0000003000300032503230301017101010106
:104DE00001011101010131010101010180011001E5
:104DF00061013B0014006301730172016201430110
:104E00000001130106013D013500040112010001FA
:104E100000010001000104010401330133013C01E0
:104E20004401320136000001000165010001350036
:104E30008101000105018201830100010302710269
:104E400030016002110270020102020202028002BD
:104E5000100261023A0041006302730272026202B0
:104E60004302000213023800000200020402120290
:104E700000020002000200020402040237003700B0
:104E80003C024402000239000002000265020002F6
:104E9000350281020002050282028302000203043D
:104EA0007104020460041104700402040204010489
:104EB0000204100461040004140463047304720403
:104EC0006204430400041304060400040004040400
:104ED00012040004000400040004510464000004EF
:104EE00000040004440400040004000400046504F9
:104EF00000043504810464000504000483040004F4
:104F000003007100300160001100700031022003C5
:104F10005004800010006100000014006300730062
:104F20007200620043000000130006000000000051
:104F30000400120000000000000000000400040053
:104F4000370037003C024400000000000000000071
:104F500065000000350081000000050000008300AE
:104F6000000036000100060000000F0000000000F5
:104F7000000000000000000003FFFF00000403FF2A
:104F8000FF0000FFFF0FF4010005C404032000012F
:104F900000000B000000000000000003010F0000F3
:104FA0000000000000000000000000000000000001
:104FB00000000000000000000000000000000000F1
:104FC0000000053A130063391F0069391F806F39EB
:104FD0000100053A0200EB380300F1380400F7380D
:104FE0000500FD3806000939300027393100213924
:104FF000320033393300393935003F39340045390F
:1050000036004B391100573914005D3915001B3932
:10501000FFFF00000A000000020000000400000082
:105020000800000010000000200000004000000008
:1050300080000000000100000002000000040000E9
:1050400000080000001000000020000000400000E8
:10505000011D43065343084D430B6B4310E73F0AC2
:105060007D430223430541430729430C05430D11AA
:105070004364BF3DFF000007ECFDFDFDECDCDCCC34
:10508000BCACAC9C9C8C7C7C6C6C5C5C5C4C4C3C90
:105090003C2C2C1C1C03EAF5E5D5D5C5B5A595958A
:1050A0008585757565655555454535352525151530
:1050B0000500160F00000B150B020002220F330033
:1050C000000E5A6967426565416C6C69616E636583
:1050D000303901030507090B0D0F00020406080A09
:1050E0000C0D00011916181616182303003030177E
:1050F000181921301B1D1F30303016181920231AA3
:105100001C1E3000393D3F373C3C362C442D0003FB
:105110004A49434E181A2505020C0E020B040B0ACD
:105120000708000F020402010101010902E803005F
:105130000000BE040A0000E8030E0000007F001E0D
:105140001E050303000404100A0C10080C280009B3
:10515000040903010C05083108FFC082C0839019BF
:1051600034E4F0A3F07C0D7D1A7A4D7B18123531B2
:10517000123DEF124035123DF50266AB74F5122573
:105180009474F5122C0BE9FF8A08EBFE8C09EF7082
:105190005D74026508703E790812383D750A007822
:1051A0000A122B7EE509F50A780A122B7EEEF50A23
:1051B000780A122B7E90186912299D901CB1E0F993
:1051C0007CD17D19901CD11270DB123E197407122C
:1051D0002B8D0252AE7401650860030252B3790848
:1051E00012383D7B00EEFAF9123E5B0252AE7401BA
:1051F0006F600874026F60030252B3EA60067403C2
:1052000065087047790212383D901CB1E0F990189A
:1052100069122E32123E07E9F8901878E0A2E340B6
:1052200010E8700D901938E004F064047003125215
:10523000D4740365087079901939E0F9740129F084
:10524000E9C39405406A1252D48065740165087000
:105250006274016F790A702E12383D7401122E614A
:10526000E4F07402122E617403F004122E61E4F073
:10527000A3F0A3F0A3F07408122E61E4F0AA18AB17
:105280001912432F804412383D901CA712299D7A91
:10529000007B2090186DE0F91234E37404122B8D1A
:1052A000901CB1E0F9901869122E32123E3DE9F8D7
:1052B000E8601790810612299D7A017B0090186D95
:1052C000E0F91234E37404122B8D740B122B8D7FD2
:1052D00003022819901869E4F0A374F8F0A374FF8E
:1052E000F0A37407F02274F6122594E9FFEAFE7A1F
:1052F000D1F91233998A828B83E5824583702A7AA9
:10530000027B0012337BEA4B700E7A107B00901800
:105310006DE0F91233BD80148A828B8374D1F0EF73
:10532000A3F0EEF91233878003EFA3F00255357432
:10533000F712259489089004D11278C7FF901C9425
:10534000E0F47003A3E0F4702D9005E4E0901C9469
:10535000F0A3E4F080208E828F83A31263B6600FE7
:105360008E828F83A3A31263B3FAA9081238D38E57
:10537000828F83127B01EE4F70DC901C94E0F470FE
:1053800003A3E0F4600A901C94E0FAA9081238D351
:1053900012443D901837125CFF1244377F010228F7
:1053A0001974F0122594890B8C0C7509007508008E
:1053B0007410122E61126AB07412122E61126AA554
:1053C000FD804712546BF50EA3E0F50FAE08EE2EEC
:1053D000FEE433FFEA2EF582EB1276E5650E7004EB
:1053E000A3E0650F7019AE09EE2EFEE433FFEC2E3C
:1053F000F582ED3FF583E50EF0A3E50FF005090515
:105400000AE50AC3950C40BB0508E508C3950B5097
:1054100005750A0080EBA90980007F08022819742D
:10542000F4122594890B7D00740C122E61126AB05F
:1054300080010DEDC3950B502E750A008002050A00
:10544000E50AC39C50ECED25E0FEE433FFEA2EF5BF
:1054500082EB3F126CCD12546B65087004A3E065BB
:105460000970DB7901800279008014AE0AEE2EFE0D
:10547000E433FFE82EF582E9125CC222122B8D7F05
:105480000402281974F612259412551F7003A3E024
:105490006D70177508767509187808122B7AEEFA70
:1054A000123A0B7402122B8D801F75080275098049
:1054B0007808122B7A8C088D097808122B7A1255ED
:1054C00012123A2F7404122B8D806A74F6122594EE
:1054D00012551F7003A3E06D7017750883750918C6
:1054E0007808122B7AEEFA123A117402122B8D8080
:1054F0001F7508037509807808122B7A8C088D09AE
:105500007808122B7A125512123A2F7404122B8D2E
:105510008023EE240E125CBFFD7C8012675322EACA
:10552000FEEBFF12676AFCE439FD901837E06C224D
:105530007402122B8D7F0202281974F612259474BE
:10554000FE122C0BEAFEEBFF851882851983E4F02E
:10555000A3125CB7126695126AA5FBECFA888289E1
:1055600083A3A3E0F9750900750800600574FF695D
:105570007005750882803E901837E06A7003A3E0DA
:105580006B701BAA18AB19124B21E9FA851882859A
:105590001983126ABA70037508838A0980179019F3
:1055A000DCE06004640170057508818008E0640235
:1055B0007003750880851882851983126AA5FDA974
:1055C00008EEFAEFFB123A17E5096011851882859B
:1055D0001983126ABA60061270D51234230255304C
:1055E00074F2122594EAFEEBFF75080075090012AB
:1055F0006766F50AE439F50B12443DEA650A700363
:10560000EB650B7012124B0FE914F50879017A0063
:105610007B19124B0980037509801276DFF50C782F
:105620000C122B7E750C00750D19780C122B7A78E4
:1056300008122B7E780A122B7AE509F508780812F1
:105640002B7E1265321276E2F97A057B80123A1DC2
:105650007407027A3674F6122594E9FF7E008032D0
:105660008A828B83E0F508A3E0F8E4C8F9E508280E
:10567000E439F509EE25E0F8E433F9EC28F582ED9C
:1056800039F583E508F0A3E509F0EA2402FA5001B0
:105690000B0EEEC39F40C902553574E81225947471
:1056A000FC122C0B8A168B177511007402122E61D6
:1056B000E4F0A312689CF0A3F0125FFC3517125CB3
:1056C00089F50B850A82F583127BACFEE439FF85F0
:1056D0000A82850B83A3A3E0FA850A82850B83A344
:1056E000A3A3E0F9EAF508E439F509EEFAEFFB12B5
:1056F00044D9E964016016EEFAEFFB1244D9E9706F
:105700003D901837E06E7003A3E06F60311274EDC6
:10571000122B7EE4F508F5097808122B7A78081226
:105720002B7E9018371229A57508807808122B7ED9
:10573000125A6F123A1D7407122B8D025A65850A90
:1057400082850B83A3A3A3A3E0F510E50A2405F546
:105750000A5002050BE510602B127A9F12341D745B
:1057600002122E61125CFF7402122E61126ABA607C
:10577000137402122E61125A97A9101239038A0A61
:105780008B0B8003751000850A82850B83127A5477
:105790006027127A9F12341D851882851983EAF0DA
:1057A000A3EB126AC0E8496010851882851983123C
:1057B0005A97A90F1239038003750F009004D18006
:1057C00052850A82850B83A3A3A3A3A3A3A3A3E467
:1057D000F0A3F0AA0AAB0B851482851583A3A3E07E
:1057E000F81263B3F9123387851282851383E0C000
:1057F000E0A811740028F582E43419F583D0E0F0B4
:105800000511A2005007AA12AB131234238514828B
:10581000851583E0F514A3E0F515E514451570032F
:105820000259DD851482851583A31263B660DE8577
:105830001482851583A3A3A3A3A3A3A3A3E0A2E03B
:1058400050CB851482851583A3A3A3A3126ABA85BE
:105850001482851583A3A3601E1263B7FA790185AC
:105860001482851583A3A3A3A3125A8A12277A8AC6
:10587000128B13D200800F125A8AA3A3A3E0F51251
:10588000A3E0F513C200E512451370030258028528
:105890001282851383A3E065087004A3E0650960A4
:1058A0000F74FF6508700474FF65096003025802F5
:1058B000851282851383A3A3A3A3A3A3A31229A55F
:1058C000851282851383A3A3A3A3A3A3E0FC74047E
:1058D000122E611270DBA9101238E57402122B8DA2
:1058E000E9703C851282851383A3A3A3A3A3A3A37A
:1058F000A3A3A31229A5851282851383A3A3A3A31F
:10590000A3A3A3A3A3E0FC7402122E611270DBA96F
:105910000F1238E57402122B8DE97003025802E56C
:105920000F2510C333240AFA7B0012337B8A0A8BBB
:105930000BEA450B70030257E88A828B8374D212FC
:105940006CD78A828B83A3A3E8F0A3E9127A10A311
:10595000E510127BBAE50FF0E510602C1279B43532
:105960000BFB850A82850B83125CFA7402122E618E
:10597000125AA1122B76AC10EC2CFCE433FD12333E
:10598000577403122B8D800D8A828B83A3A3A3A34C
:10599000A3E4F0A3F0E50F70030257C1A810E828B4
:1059A000F8E433F9E50A28F8E50B39F9E81279B596
:1059B00039FB850A82850B83A3A3A3125CFA8518A1
:1059C00082851983125AA1122B76AC0FEC2CFCE4C1
:1059D00033FD1233577403122B8D0257D3E5116038
:1059E000251274ED122B7E750800750919780812BE
:1059F0002B7AE511F5087808122B7E9018371229BA
:105A0000A57508008029EEFAEFFB1244D9E9702F42
:105A10001274ED122B7E7508007509197808122B87
:105A20007A7508007808122B7E9018371229A5780D
:105A300008122B7E125A6F123A1D7407122B8D74A6
:105A400002122E61126ABA600B7402122E61127079
:105A5000DB123423851882851983126ABA60061214
:105A600070D51234237404122B8D7F10022819E58F
:105A7000162402FCE43517FDE516240FF582E43503
:105A800017F583E0F97A067B8022125A8E22E0F81D
:105A9000A3E0F583888222E0FCA3E0FDAA0AAB0B19
:105AA00022E0F50CA3E0F50D750E00780C2274F1E0
:105AB00012259474F4122C0B8A088B09ECFEEDFF6E
:105AC000740B122E617403F0122BE3123531124461
